:020000040800F2
:10000000000005208D030008950300089D030008EB
:1000100029040008310400088904000800000000D9
:10002000000000000000000000000000E1040008E3
:10003000E904000800000000F10400087929000824
:100040001105000811050008110500081105000838
:100050001105000811050008110500081105000828
:100060001105000811050008110500081105000818
:100070001105000811050008110500081105000808
:1000800011050008110500081105000811050008F8
:1000900011050008110500081105000811050008E8
:1000A00011050008110500081105000811050008D8
:1000B00011050008110500081105000811050008C8
:1000C00011050008110500081105000811050008B8
:1000D00011050008110500081105000811050008A8
:1000E0001105000811050008110500081105000898
:1000F0001105000811050008110500081105000888
:100100001105000811050008110500081105000877
:100110001105000811050008110500081105000867
:100120001105000811050008110500081105000857
:100130001105000811050008110500081105000847
:100140001105000811050008110500081105000837
:100150001105000811050008110500081105000827
:100160001105000811050008110500081105000817
:100170001105000811050008110500080000000025
:1001800011050008110500081105000811050008F7
:1001900011050008110500081105000811050008E7
:1001A00011050008110500081105000811050008D7
:1001B00011050008110500081105000811050008C7
:1001C000110500081105000880B596B000AF02F0D7
:1001D00089F85D4B5D4A1A605D4B5C4A1A605D4B65
:1001E0007B6523E07B6D1A1D7A651B68FB647B6D64
:1001F0001A1D7A651B68BB647B6D1A1D7A651B68C6
:100200007B64FB6C3B63BB6CFB627B6CBB62FB6A1D
:100210007B6207E07B6A1A1D7A623A6B111D3963B3
:1002200012681A60BA6A7B6A9A42F3D87B6D4A4AAE
:100230009342D7D3444B1B68484A934204D1444B62
:100240001B68474A934200D0FEE7464B3F4A1A607C
:10025000454B3E4A1A60454B3B6519E03B6D1A1D04
:100260003A651B68FB633B6D1A1D3A651B68BB63EF
:10027000FB6B3B64BB6B3B623B6CFB6104E0FB696B
:100280001A1DFA6100221A603A6AFB699A42F6D88E
:100290003B6D374A9342E1D3324B1B68002B03D1AD
:1002A000314B1B68002B00D0FEE702F029F83A1D05
:1002B00007F108031146184601F0B8FB2D4A2E4BF2
:1002C000D31A9B103B610023FB6007E02A4AFB68BE
:1002D00052F823309847FB680133FB603A69FB68AA
:1002E0009A42F3DC254A264BD31A9B103B6100232C
:1002F000FB6007E0224AFB6852F823309847FB680E
:100300000133FB603A69FB689A42F3DCBB687A68A8
:100310001146184602F0A8FA78631A4A1A4BD31A03
:100320009B10BB61BB697B6108E07B69013B164A9E
:1003300052F8233098477B69013B7B617B69002B36
:10034000F3DC786B01F024FC00000020BABADECAAE
:100350007000002018050008300500087856341297
:1003600032547698740000206C0202203005000898
:100370004005000840050008400500084005000849
:1003800040050008400500084005000880B500AFA2
:10039000FFF71AFF80B400AF00BEFEE71EF0040FA7
:1003A0000CBFEFF30880EFF309807146554A104700
:1003B00000BF00BF80B588B002AF78603960184BCD
:1003C0005B6B7B61164B9B6B3B61154B9B6AFB60C8
:1003D000134B1B6B03F00203002B10D0104BDB6A96
:1003E000002B0CDA4BF6AB61786802F039F8034663
:1003F000002B04D00A4B4FF00042DA620CE00948AF
:1004000001F0F2FE3B6800933B697A69F96878680D
:1004100001F090FF00BEFEE71837BD4680BD00BF6B
:1004200000ED00E00C45000880B400AF00BEFEE720
:100430001EF0040F0CBFEFF30880EFF30980714644
:10044000314A104700BF00BF80B588B002AF786066
:1004500039600B4B5B6B7B61094B9B6B3B61084BC2
:100460009B6AFB60074801F0BFFE3B6800933B6955
:100470007A69F968786801F05DFF00BEFEE700BFA9
:1004800000ED00E01C4500081EF0040F0CBFEFF368
:100490000880EFF3098071461C4A104700BF00BF77
:1004A00080B588B002AF786039600B4B5B6B7B61C5
:1004B000094B9B6B3B61084B9B6AFB60074801F053
:1004C00093FE3B6800933B697A69F968786801F0AC
:1004D00031FF00BEFEE700BF00ED00E02845000848
:1004E00080B400AF00BEFEE780B400AF00BEFEE700
:1004F00080B400AF00BEFEE780B400AF00BFBD46D1
:1005000080BC7047B503000849040008A104000836
:0805100080B400AF00BEFEE75D
:10051800A44700080000002074000020A447000839
:10052800000000100000001074000020700202207B
:0805380000000010000000109B
:1005400080B500AF084A084B1B6843F40073136082
:10055000032000F0EDF80F2000F008F802F012FA86
:100560000023184680BD00BF003C024080B582B029
:1005700000AF786001F00AF80246094BA3FB0223A2
:100580009B09184600F020F9002279684FF0FF30EF
:1005900000F0EEF8002318460837BD4680BD00BFC6
:1005A000D34D621080B400AF044B1B680133034A83
:1005B000136000BFBD4680BC704700BF78000020BC
:1005C00080B400AF024B1B681846BD4680BC704724
:1005D0007800002080B485B000AF78607B6803F0BD
:1005E0000703FB600B4BDB68BB60BA684FF6FF0389
:1005F0001340BB60FB681A02BB681A43064B1343E7
:10060000BB60044ABB68D36000BF1437BD4680BCE2
:10061000704700BF00ED00E00000FA0580B400AFB5
:10062000044BDB6803F4E0631B0A1846BD4680BC3C
:10063000704700BF00ED00E080B483B000AF034618
:100640003960FB7197F90730002B0BDA0D49FB7904
:1006500003F00F03043B3A68D2B21201D2B20B444A
:100660001A7609E0084997F907303A68D2B21201C0
:10067000D2B20B4483F8002300BF0C37BD4680BCC8
:10068000704700BF00ED00E000E100E080B489B0F9
:1006900000AFF860B9607A60FB6803F00703FB61A4
:1006A000FB69C3F10703042B28BF0423BB61FB696B
:1006B0000433062B02D9FB69033B00E000237B6176
:1006C0000122BB6902FA03F35A1EBB681A407B6918
:1006D0009A4001217B6901FA03F3591E7B680B40A4
:1006E000134318462437BD4680BC704780B582B09E
:1006F00000AF78607B68013BB3F1807F01D30123B9
:100700000FE00A4A7B68013B53600F214FF0FF3036
:10071000FFF792FF054B00229A60044B07221A60F4
:10072000002318460837BD4680BD00BF10E000E03A
:1007300080B582B000AF78607B68072B0FD07B68F4
:10074000062B0CD07B68052B09D07B68042B06D0C8
:100750007B68032B03D0A421044801F037FD78689F
:10076000FFF738FF00BF0837BD4680BD884200084C
:1007700080B586B000AF0346B9607A60FB73002392
:100780007B617B680F2B03D9BC210E4801F01EFD55
:10079000BB680F2B03D9BD210A4801F017FDFFF7F5
:1007A0003DFF78617A68B9687869FFF76FFF0246A4
:1007B00097F90F3011461846FFF73EFF00BF183774
:1007C000BD4680BD8842000880B582B000AF786029
:1007D0007868FFF78BFF034618460837BD4680BD93
:1007E00080B582B000AF78607B68042B07D07B684F
:1007F000002B04D040F2B3110B4801F0E7FC7B68FA
:10080000042B06D1094A094B1B6843F0040313600B
:1008100005E0064A054B1B6823F00403136000BF84
:100820000837BD4680BD00BF8842000810E000E0E8
:1008300080B582B000AF00237B6000233B60224A7A
:10084000214B1B6C43F0805313641F4B1B6C03F054
:1008500080533B603B681D4A1C4B1B6843F480334C
:100860001360FFF7ADFE786009E0FFF7A9FE0246CE
:100870007B68D31AB3F57A7F01D9032320E0134BA9
:100880005B6803F48033002BEFD0104A0F4B1B68DA
:1008900043F400331360FFF793FE786009E0FFF73D
:1008A0008FFE02467B68D31AB3F57A7F01D9032302
:1008B00006E0064B5B6803F40033002BEFD0002307
:1008C00018460837BD4680BD003802400070004021
:1008D00080B58EB000AF786000237B637B681B68B7
:1008E0000F2B04D94FF48071A44801F06FFC7B6892
:1008F0001B6803F00103002B00F0BE807B685B687F
:10090000002B0ED07B685B68B3F5803F09D07B6815
:100910005B68B3F5A02F04D04FF48371974801F0C2
:1009200055FC974B9B6803F00C03042B0BD0944BA6
:100930009B6803F00C03082B13D1914B5B6803F405
:100940008003002B0DD08E4B1B6803F40033002B6B
:1009500000F091807B685B68002B40F08C80012365
:1009600037E3874A864B1B6823F480331360844A3D
:10097000834B1B6823F480231360814A804B1B68E0
:1009800023F480331360FFF71BFE786309E0FFF761
:1009900017FE02467B6BD31AB3F5FA7F01D9032306
:1009A00017E3774B1B6803F40033002BEFD1744A35
:1009B000734B1B6823F4803313607B685B68B3F56B
:1009C000803F0CD16E4A6E4B1B6823F4802313606A
:1009D0006B4A6B4B1B6843F4803313601DE07B68EC
:1009E0005B68B3F5A02F0CD1654A654B1B6843F4D7
:1009F00080231360624A624B1B6843F480331360A8
:100A00000BE05F4A5E4B1B6823F4802313605C4A53
:100A10005B4B1B6823F4803313607B685B68002B9F
:100A200014D0FFF7CDFD786309E0FFF7C9FD02465A
:100A30007B6BD31AB3F5FA7F01D90323C9E2504B7C
:100A40001B6803F40033002BEFD015E0FFF7B8FD6F
:100A5000786309E0FFF7B4FD02467B6BD31AB3F568
:100A6000FA7F01D90323B4E2454B1B6803F400333A
:100A7000002BEFD100E000BF7B681B6803F002038E
:100A8000002B00F098807B68DB68002B08D07B6827
:100A9000DB68012B04D040F24711384801F096FB87
:100AA0007B681B691F2B04D94FF4A471334801F0F4
:100AB0008DFB334B9B6803F00C03002B0BD0304BAA
:100AC0009B6803F00C03082B26D12D4B5B6803F4C5
:100AD0008003002B20D12A4B1B6803F00203002B5C
:100AE00005D07B68DB68012B01D0012371E224482B
:100AF000234B1B6823F0F8027B681969F8233B62DB
:100B00003B6A93FAA3F3FB61FB69B3FA83F301FA3F
:100B100003F3134303604EE07B68DB68002B31D0A6
:100B2000174A174B1B6843F001031360FFF748FD9A
:100B3000786308E0FFF744FD02467B6BD31A642B11
:100B400001D9032345E20E4B1B6803F00203002B7F
:100B5000F0D00B480A4B1B6823F0F8027B68196938
:100B6000F823FB62FB6A93FAA3F3BB61BB69B3FA98
:100B700083F301FA03F3134303601CE0CC42000843
:100B800000380240924A924B1B6823F00103136025
:100B9000FFF716FD786308E0FFF712FD02467B6B56
:100BA000D31A642B01D9032313E2894B1B6803F08A
:100BB0000203002BF0D17B681B6803F00803002BB5
:100BC00043D07B685B69002B08D07B685B69012B95
:100BD00004D04FF4C4717F4801F0F8FA7B685B6978
:100BE000002B19D07A4A7A4B5B6F43F001035367AD
:100BF000FFF7E6FC786308E0FFF7E2FC02467B6B58
:100C0000D31A642B01D90323E3E1714B5B6F03F02B
:100C10000203002BF0D018E06D4A6D4B5B6F23F0A0
:100C200001035367FFF7CCFC786308E0FFF7C8FCCB
:100C300002467B6BD31A642B01D90323C9E1644BB1
:100C40005B6F03F00203002BF0D17B681B6803F09D
:100C50000403002B00F0C8807B689B68002B0CD03D
:100C60007B689B68012B08D07B689B68052B04D0B0
:100C70004FF4D971574801F0A9FA0023BB60544AD8
:100C8000534B1B6C43F080531364514B1B6C03F0AC
:100C90008053BB60BB68504A4F4B1B6843F4807362
:100CA0001360FFF78DFC786308E0FFF789FC0246CC
:100CB0007B6BD31A642B01D903238AE1464B1B6853
:100CC00003F48073002BF0D0414A414B1B6F23F09B
:100CD000010313673E4A3E4B1B6F23F00403136767
:100CE0003B4A3B4B1B6F23F001031367FFF768FC84
:100CF00078630AE0FFF764FC02467B6BD31A41F28B
:100D00008832934201D9032363E1314B1B6F03F017
:100D10000203002BEED12E4A2D4B1B6F23F0010353
:100D200013677B689B68012B0CD1294A284B1B6FEA
:100D300023F004031367264A254B1B6F43F001037E
:100D400013671CE07B689B68052B0CD1204A204B65
:100D50001B6F43F0040313671D4A1D4B1B6F43F0C9
:100D6000010313670BE01A4A194B1B6F23F00403AE
:100D70001367174A164B1B6F23F0010313677B6839
:100D80009B68002B15D0FFF71BFC78630AE0FFF788
:100D900017FC02467B6BD31A41F28832934201D989
:100DA000032316E10A4B1B6F03F00203002BEED066
:100DB0001AE0FFF705FC786310E0FFF701FC02463C
:100DC0007B6BD31A41F28832934207D9032300E1A7
:100DD00000380240CC420008007000407F4B1B6F7F
:100DE00003F00203002BE8D17B689B69002B0CD039
:100DF0007B689B69012B08D07B689B69022B04D020
:100E00004FF4FB71764801F0E1F97B689B69002B98
:100E100000F0DE80714B9B6803F00C03082B00F0A0
:100E2000D5807B689B69022B40F0B6807B68DB69CC
:100E3000002B09D07B68DB69B3F5800F04D040F24A
:100E4000FF11674801F0C2F97B681B6A012B03D9C7
:100E50007B681B6A3F2B04D94FF40071604801F096
:100E6000B5F97B685B6A312B04D97B685B6AB3F5A3
:100E7000D87F04D940F20121594801F0A7F97B68D5
:100E80009B6A022B10D07B689B6A042B0CD07B687A
:100E90009B6A062B08D07B689B6A082B04D040F223
:100EA00002214F4801F092F97B68DB6A012B03D9DC
:100EB0007B68DB6A0F2B04D940F20321484801F01C
:100EC00085F9464A454B1B6823F080731360FFF792
:100ED00077FB786308E0FFF773FB02467B6BD31A5E
:100EE000642B01D9032374E03C4B1B6803F00073AF
:100EF000002BF0D139487B681A6A7B68596A47F63B
:100F0000C073BB62BB6A93FAA3F3FB60FB68B3FADE
:100F100083F301FA03F31A437B689B6A5B08591E4B
:100F20004FF440337B627B6A93FAA3F33B613B69E6
:100F3000B3FA83F301FA03F31A437B68DB691A43BC
:100F40007B68D96A4FF070633B633B6B93FAA3F302
:100F50007B617B69B3FA83F301FA03F3134343F034
:100F6000005343601D4A1D4B1B6843F080731360A0
:100F7000FFF726FB786308E0FFF722FB02467B6B56
:100F8000D31A642B01D9032323E0144B1B6803F00D
:100F90000073002BF0D01BE0104A104B1B6823F0AD
:100FA00080731360FFF70CFB786308E0FFF708FB22
:100FB00002467B6BD31A642B01D9032309E0074B4C
:100FC0001B6803F00073002BF0D101E0012300E067
:100FD000002318463837BD4680BD00BF00380240A8
:100FE000CC42000880B584B000AF7860396000233F
:100FF000FB607B681B68002B03D07B681B680F2B92
:1010000004D940F26221864801F0E0F83B68002BE9
:1010100031D03B68012B2ED03B68022B2BD03B6894
:10102000032B28D03B68042B25D03B68052B22D00E
:101030003B68062B1FD03B68072B1CD03B68082B56
:1010400019D03B68092B16D03B680A2B13D03B689C
:101050000B2B10D03B680C2B0DD03B680D2B0AD00E
:101060003B680E2B07D03B680F2B04D040F2632166
:101070006B4801F0ABF86B4B1B6803F00F023B6849
:101080009A4280F0D3806749664B1B6823F00F02B9
:101090003B6813430B60634B1B6803F00F023B6814
:1010A0009A4201D00123E9E17B681B6803F0020347
:1010B000002B31D07B689B68002B24D07B689B6819
:1010C000802B20D07B689B68902B1CD07B689B6812
:1010D000A02B18D07B689B68B02B14D07B689B68D2
:1010E000C02B10D07B689B68D02B0CD07B689B6892
:1010F000E02B08D07B689B68F02B04D040F279216C
:10110000474801F063F84849474B9B6823F0F002D9
:101110007B689B6813438B607B681B6803F001034B
:10112000002B00F04E817B685B68002B0CD07B6845
:101130005B68012B08D07B685B68022B04D04FF4FE
:101140002071374801F042F87B685B68012B07D1BA
:10115000354B1B6803F40033002B15D101238DE1BF
:101160007B685B68022B07D12F4B1B6803F0007371
:10117000002B09D1012381E12B4B1B6803F00203F3
:10118000002B01D1012379E12749274B9B6823F0EC
:1011900003027B685B6813438B60FFF711FAF8600A
:1011A0007B685B68012B12D10AE0FFF709FA02465F
:1011B000FB68D31A41F28832934201D903235DE1DF
:1011C000194B9B6803F00C03042BEED1F9E07B680C
:1011D0005B68022B1DD10AE0FFF7F2F90246FB68BB
:1011E000D31A41F28832934201D9032346E10E4BD0
:1011F0009B6803F00C03082BEED1E2E0FFF7E0F967
:101200000246FB68D31A41F28832934201D9032384
:1012100034E1054B9B6803F00C03002BEED1D0E0CA
:10122000CC420008003C0240003802407B681B684A
:1012300003F00203002B31D07B689B68002B24D085
:101240007B689B68802B20D07B689B68902B1CD090
:101250007B689B68A02B18D07B689B68B02B14D050
:101260007B689B68C02B10D07B689B68D02B0CD010
:101270007B689B68E02B08D07B689B68F02B04D0D0
:101280004FF432717F4800F0A1FF7F497E4B9B688D
:1012900023F0F0027B689B6813438B607B681B68BC
:1012A00003F00103002B7BD07B685B68002B0CD024
:1012B0007B685B68012B08D07B685B68022B04D0DD
:1012C00040F2CF216F4800F081FF7B685B68012B03
:1012D00007D16D4B1B6803F40033002B15D101239C
:1012E000CCE07B685B68022B07D1674B1B6803F07F
:1012F0000073002B09D10123C0E0634B1B6803F08E
:101300000203002B01D10123B8E05F495E4B9B68CB
:1013100023F003027B685B6813438B60FFF750F98F
:10132000F8607B685B68012B12D10AE0FFF748F98F
:101330000246FB68D31A41F28832934201D9032353
:101340009CE0514B9B6803F00C03042BEED127E08B
:101350007B685B68022B1DD10AE0FFF731F902467A
:10136000FB68D31A41F28832934201D9032385E006
:10137000454B9B6803F00C03082BEED110E0FFF700
:101380001FF90246FB68D31A41F28832934201D911
:10139000032373E03C4B9B6803F00C03002BEED15E
:1013A0003A493A4B1B6823F00F023B6813430B602A
:1013B000364B1B6803F00F023B689A4201D00123B1
:1013C0005CE07B681B6803F00403002B25D07B687E
:1013D000DB68002B18D07B68DB68B3F5805F13D027
:1013E0007B68DB68B3F5A05F0ED07B68DB68B3F584
:1013F000C05F09D07B68DB68B3F5E05F04D040F2E2
:101400001E31204800F0E2FE1F491F4B9B6823F469
:10141000E0527B68DB6813438B607B681B6803F0DA
:101420000803002B26D07B681B69002B18D07B6833
:101430001B69B3F5805F13D07B681B69B3F5A05FB0
:101440000ED07B681B69B3F5C05F09D07B681B6950
:10145000B3F5E05F04D040F225310A4800F0B6FE53
:101460000949094B9B6823F460427B681B69DB00D8
:1014700013438B600F20FFF779F8002318461037CD
:10148000BD4680BDCC42000800380240003C02400E
:1014900080B48BB000AF0023FB6100237B6200238C
:1014A000BB6100233B62364B9B6803F00C03042BAB
:1014B00006D0082B07D0002B58D1324B3B6258E0A6
:1014C000314B3B6255E02E4B5B6803F03F03FB6101
:1014D0002B4B5B6803F48003002B17D02A4AFB696F
:1014E000B2FBF3F2264B596847F6C0730B4047F640
:1014F000C071F960F96891FAA1F1B960B968B1FAFF
:1015000081F1CB4003FB02F37B6216E01D4AFB69CD
:10151000B2FBF3F21A4B596847F6C0730B4047F61B
:10152000C0717961796991FAA1F179607968B1FA4C
:1015300081F1CB4003FB02F37B62114B5B6803F448
:1015400040324FF440333B613B6993FAA3F33B6075
:101550003B68B3FA83F322FA03F301335B00BB6108
:101560007A6ABB69B2FBF3F33B6202E0054B3B6274
:1015700000BF3B6A18462C37BD4680BC704700BF91
:10158000003802400024F40040787D0180B582B02C
:1015900000AFFFF77DFF01460D4B9B6803F0F002A3
:1015A000F0237B607B6893FAA3F33B603B68B3FA5C
:1015B00083F322FA03F3074AD35C21FA03F3064AC2
:1015C0001360054B1B6818460837BD4680BD00BF39
:1015D00000380240BC4200080400002080B582B000
:1015E00000AF78607B68002B01D101238DE07B6820
:1015F0001B68484A934244D07B681B68B3F1804F14
:101600003FD07B681B68444A93423AD07B681B6892
:10161000424A934235D07B681B68414A934230D09E
:101620007B681B683F4A93422BD07B681B683E4A0D
:10163000934226D07B681B683C4A934221D07B684A
:101640001B683B4A93421CD07B681B68394A934213
:1016500017D07B681B68384A934212D07B681B689E
:10166000364A93420DD07B681B68354A934208D0B6
:101670007B681B68334A934203D0D221324800F082
:10168000A5FD7B689B68002B13D07B689B68102BA3
:101690000FD07B689B68202B0BD07B689B68402B0E
:1016A00007D07B689B68602B03D0D321264800F0CD
:1016B0008DFD7B681B69002B0DD07B681B69B3F522
:1016C000807F08D07B681B69B3F5007F03D0D421ED
:1016D0001D4800F07BFD7B6893F83930DBB2002BAE
:1016E00002D1786800F032F87B68022283F8392052
:1016F0007B681A687B6804331946104600F0B0F81E
:101700007B68012283F83920002318460837BD463C
:1017100080BD00BF00000140000400400008004000
:10172000000C004000100040001400400004014084
:1017300000400140004401400048014000180040C2
:10174000001C004000200040FC42000880B483B030
:1017500000AF786000BF0C37BD4680BC704700BF4B
:1017600080B582B000AF78607B681B682E4A9342D8
:1017700045D07B681B68B3F1804F40D07B681B6805
:101780002A4A93423BD07B681B68294A934236D051
:101790007B681B68274A934231D07B681B68264AC6
:1017A00093422CD07B681B68244A934227D07B68E5
:1017B0001B68234A934222D07B681B68214A9342CC
:1017C0001DD07B681B68204A934218D07B681B6839
:1017D0001E4A934213D07B681B681D4A93420ED069
:1017E0007B681B681B4A934209D07B681B681A4AB6
:1017F000934204D040F22D11184800F0E7FC7B68BA
:10180000022283F839207B681B687A6812681268A4
:1018100042F001021A607B68012283F8392000231C
:1018200018460837BD4680BD000001400004004056
:1018300000080040000C0040001000400014004070
:1018400000040140004001400044014000480140C4
:1018500000180040001C004000200040FC4200082E
:1018600080B485B000AF786039600023FB607B688E
:101870001B68FB607B68434A934213D07B68B3F1DB
:10188000804F0FD07B68404A93420BD07B683F4A21
:10189000934207D07B683E4A934203D07B683D4A1F
:1018A000934201D1012300E00023002B08D0FB6804
:1018B00023F07003FB603B685B68FA681343FB60CE
:1018C0007B68304A93422BD07B68B3F1804F27D09E
:1018D0007B682D4A934223D07B682C4A93421FD0C9
:1018E0007B682B4A93421BD07B682A4A934217D0CD
:1018F0007B68294A934213D07B68284A93420FD0D1
:101900007B68274A93420BD07B68264A934207D0D4
:101910007B68254A934203D07B68244A934201D1D5
:10192000012300E00023002B08D0FB6823F4407360
:10193000FB603B68DB68FA681343FB607B68FA680E
:101940001A603B689A687B68DA623B681A687B6851
:101950009A627B680B4A934203D07B680D4A93429C
:1019600001D1012300E00023002B03D03B681A695A
:101970007B681A637B6801225A6100BF1437BD4639
:1019800080BC704700000140000400400008004097
:10199000000C0040000401400040014000440140B0
:1019A0000048014000180040001C0040002000409A
:1019B00080B500AF024800F039FC012000F0E8F8E3
:1019C0002C43000880B584B000AF7860144B1B68CE
:1019D000002B02D1124B134A1A60114B1B68FB609B
:1019E0007B68033323F003037B600D4B1A687B682D
:1019F00013440D4A934207D901F030FA02460C23F2
:101A000013604FF0FF3306E0054B1A687B68134400
:101A1000034A1360FB6818461037BD4680BD00BFFF
:101A20007C0000207002022000FC0420B0B590B0C1
:101A300000AF786039600023FB630023BB63514B28
:101A4000FB604F233B611523FB6107F10C03BB6176
:101A5000FC69BD6920462946ABBE04467C617B69B2
:101A6000FB62FB6A002B6FD1464B002283F84F20AC
:101A7000FB687B6300233B635DE0BB6B002B2ED1D7
:101A8000BB6A3B62404B1A683B6A0133134493F9CB
:101A90000030002B02DB3B6A092B01D1012300E05F
:101AA0000023002B44D1FB6B082B4CDCBB6A222BA0
:101AB00002D0BB6A272B08D1BB6A3B637B6B013327
:101AC0007B637B6B93F90030BB62FB6B5A1CFA6340
:101AD0002E497A6B41F823200123BB6328E03B6B3E
:101AE000002B0BD0BA6A3B6B9A4221D100233B6397
:101AF0007B6B00221A700023BB6319E0BB6A7B6218
:101B0000214B1A687B6A0133134493F90030002B90
:101B100002DB7B6A092B01D1012300E00023002BAB
:101B200006D000233B637B6B00221A700023BB634B
:101B30007B6B01337B637B6B93F90030BB62BB6AC9
:101B4000002B9AD100E000BFFB6B002B08D10D4B9E
:101B500000221A700D4B0B4A1A60FB6B0133FB63BA
:101B60000A4AFB6B002142F823107B68FA6B1A606B
:101B70003B68064A1A6000F053F800BF4037BD4684
:101B8000B0BD00BF2C010020080000207C01002017
:101B9000B0B586B000AF78607B68002B01D1084BF0
:101BA00000E0084B7B617B6918223A61FB603C696D
:101BB000FD6820462946ABBE0446BC60FEE700BF78
:101BC000260002002300020080B582B000AF7860DA
:101BD000114B1B68002B09D00F4B1B689B6B002B14
:101BE00004D10D4B1B68184601F07EF97B68132B5E
:101BF00001D900230CE0094A7B6852F83330B3F175
:101C0000FF3F01D1002303E07B68DB00034A13445C
:101C100018460837BD4680BD6C00002080000020BB
:101C2000B0B58EB000AF364B7B600323FB60002362
:101C3000BB6001233B633B1D7B613C6B7D692046A0
:101C40002946ABBE04463C613B692E4A13602C4BCF
:101C50007B600323FB600423BB600123FB623B1D0D
:101C6000FB61FC6AFD6920462946ABBE0446BC61A7
:101C7000BB69254A1360224B7B600323FB6008236A
:101C8000BB600123BB623B1D7B62BC6A7D6A204650
:101C90002946ABBE04463C623B6A1C4A13601B4BA0
:101CA0001B68B3F1FF3F03D1174B1B68174A136042
:101CB00000237B6308E0164A7B6B4FF0FF3142F84C
:101CC00033107B6B01337B637B6B132BF3DD0D4B8D
:101CD0001B680F4A13600E4B00225A600A4B1B68A8
:101CE0000B4A93600A4B0022DA60084B1B68084AD3
:101CF0001361074B00225A6100BF3837BD46B0BDA3
:101D00004043000820010020240100202801002079
:101D100080000020B0B584B000AF1323FB60002327
:101D2000BB60FC68BD6820462946ABBE04467C60AB
:101D30007B6800BF18461037BD46B0BD90B583B074
:101D400000AF786001F08AF80446FFF7E3FF03462E
:101D500023607B6818460C37BD4690BD80B582B0C5
:101D600000AF78607B68B3F1FF3F05D14FF0FF30E3
:101D7000FFF7E4FF034600E07B6818460837BD46DE
:101D800080BD00BFB0B58AB000AFF860B9607A60BE
:101D9000FB683B61BB687B617B68BB6106237B6240
:101DA00007F110033B627C6A3D6A20462946ABBEC0
:101DB0000446FC61FB691846FFF7D0FF034618464E
:101DC0002837BD46B0BD00BF80B586B000AFF86013
:101DD000B9607A60F868FFF7F7FE78617B69002BDD
:101DE00007D101F03BF80246092313604FF0FF339F
:101DF00018E07B691B687A68B9681846FFF7C2FF6C
:101E000038613B69B3F1FF3F01D13B690AE07B696F
:101E10005A6879683B69CB1A1A447B695A607A68B8
:101E20003B69D31A18461837BD4680BDB0B58EB091
:101E300000AFF860B9607A60F868FFF7C5FE7863B4
:101E40007B6B002B07D101F009F8024609231360D0
:101E50004FF0FF3373E07B68012B0DD07B68002BC4
:101E60000AD07B68022B07D000F0F8FF0246162349
:101E700013604FF0FF3362E07B68012B1DD17B6B59
:101E80005B68BA681344BB60BB68002B13DA00F0D0
:101E9000E5FF0246162313607B6B5B68002B07DDB2
:101EA000BB68002B04DD00F0D9FF02468B231360D2
:101EB0004FF0FF3343E000237B607B68022B1ED191
:101EC0007B6B1B683B610C23BB6207F110037B62D9
:101ED000BC6A7D6A20462946ABBE04463C623B6A2A
:101EE0001846FFF73BFFF862FB6AB3F1FF3F02D1F0
:101EF0004FF0FF3323E0BA68FB6A1344BB607B6B8F
:101F00001B683B61BB687B610A233B6307F11003DD
:101F1000FB613C6BFD6920462946ABBE0446BC61B3
:101F2000BB691846FFF71AFFF862FB6A002B04DB57
:101F30007B6BBA685A60BB6801E04FF0FF3318460C
:101F40003837BD46B0BD00BF80B584B000AFF86083
:101F5000B9607A607A68B968F868FFF767FF034686
:101F600018461037BD4680BDB0B58AB000AFF860E6
:101F7000B9607A60FB683B61BB687B617B68BB6171
:101F800005237B6207F110033B627C6A3D6A2046B1
:101F90002946ABBE0446FC61FB691846FFF7DEFE2E
:101FA000034618462837BD46B0BD00BF80B586B091
:101FB00000AFF860B9607A60F868FFF705FE7861F5
:101FC0007B69002B07D100F049FF0246092313600B
:101FD0004FF0FF3321E07B691B687A68B9681846C7
:101FE000FFF7C2FF38613B69002B02DA4FF0FF3385
:101FF00013E07B695A6879683B69CB1A1A447B699C
:102000005A607A683B699A4204D10020FFF796FE35
:10201000034602E07A683B69D31A18461837BD4672
:1020200080BD00BFB0B586B000AF786002237B6191
:102030003B1D3B617C693D6920462946ABBE044699
:10204000FC60FB681846FFF789FE03461846183700
:10205000BD46B0BD80B584B000AF78607868FFF74A
:10206000B3FDF860FB68002B07D100F0F7FE0246D5
:10207000092313604FF0FF331FE07B68012B02D070
:102080007B68022B0BD10F4B9A680E4B1B699A424F
:1020900005D1FB684FF0FF321A6000230DE0FB68AA
:1020A0001B681846FFF7BEFFB860BB68002B03D162
:1020B000FB684FF0FF321A60BB6818461037BD4608
:1020C00080BD00BF80000020B0B588B000AF786050
:1020D00039607868FFF778FDF861FB69002B07D15C
:1020E00000F0BCFE0246092313604FF0FF3324E0EA
:1020F0003B685B6843F400523B685A603B684FF4AE
:102100008062DA62FB690C227A613B617C693D691D
:1021100020462946ABBE0446FC60FB681846FFF724
:102120001DFEB861BB69B3F1FF3F02D14FF0FF3331
:1021300003E03B68BA691A61002318462037BD46A0
:10214000B0BD00BF80B582B000AF786039603C227E
:102150000021386800F06CFF39687868FFF7B4FF39
:10216000034618460837BD4680BD00BFB0B588B0ED
:1021700000AF78607868FFF727FDF861FB69002BF6
:1021800006D100F06BFE024609231360002319E01C
:10219000FB6909227A613B617C693D6920462946D9
:1021A000ABBE0446FC60FB68BB61BB69012B01D17F
:1021B000012307E000F052FE0446FFF7ABFD0346A3
:1021C0002360002318462037BD46B0BD80B582B0DD
:1021D00000AF786039603A687968024800F004F826
:1021E000FFF7E6FB904300080FB480B582B000AF64
:1021F00007F114033B603B683A6980210A4801F00B
:10220000DFF878607B68002B05DD7B68194606489F
:1022100000F024F878607B6818460837BD46BDE8B2
:10222000804004B0704700BFA401002080B582B098
:1022300000AF7860786801F090F803461946786836
:1022400000F00CF80121044800F008F80346184695
:102250000837BD4680BD00BFBC43000880B582B0D2
:1022600000AF786039603968786800F005F8034697
:1022700018460837BD4680BD80B485B000AF786091
:1022800039600023FB6023E04FF06043D3F8803EC9
:1022900003F00103002B07D04FF06043D3F8003E5A
:1022A00003F00103002B01D1FB6816E000BF4FF0E3
:1022B00060431B68002BFAD04FF060417B685A1CCA
:1022C0007A6093F90030DBB20B70FB680133FB607E
:1022D000FA683B689A42D7D33B6818461437BD4624
:1022E00080BC704780B500AF00F0BAF9024B034ADA
:1022F0009A6000BF80BD00BF00ED00E00000000854
:1023000080B500AF00F0DAF900BF80BD80B400AF47
:10231000BFF34F8F0549054BDB6803F4E062044BC4
:102320001343CB60BFF34F8F00BFFDE700ED00E02C
:102330000400FA0580B584B000AFF860B9607A6037
:102340003B603448FFF750FFFB681B681946324872
:10235000FFF74AFFFB685B6819463048FFF744FF08
:10236000FB689B6819462E48FFF73EFFFB68DB6859
:1023700019462C48FFF738FFFB681B6919462A48A5
:10238000FFF732FFFB685B6919462848FFF72CFF0F
:10239000FB689B6919462648FFF726FFFB68DB6947
:1023A00019462448FFF720FF2348FFF71DFFB968AF
:1023B0002248FFF719FF224BDB6A19462148FFF735
:1023C00013FF1F4B1B6B19461F48FFF70DFF1C4BDC
:1023D000DB6B19461D48FFF707FFBB6803F080035E
:1023E000002B03D079681A48FFF7FEFEBB6803F4A0
:1023F0000043002B03D039681648FFF7F5FE164856
:10240000FFF7F2FEB9691548FFF7EEFE00BF10377F
:10241000BD4680BDEC430008FC4300080C440008A6
:102420001C4400082C4400083C4400084C440008AC
:102430005C4400086C4400087C44000888440008A0
:1024400000ED00E098440008A8440008B8440008E3
:10245000C8440008D8440008E8440008F0440008D4
:1024600080B586B000AF78600B467B807B689B6947
:102470007B617B691B887A889A4240F0E9807B689F
:102480001B683B617B685B68FB60FB68BB603B690A
:10249000013B302B00F2D28001A252F823F000BFA2
:1024A000C92500086F2500084126000841260008BC
:1024B0001B260008A7250008B12500089F25000855
:1024C00065250008652500083D26000865250008EB
:1024D00065250008652500086525000865250008B4
:1024E000B925000865250008772500083D26000865
:1024F000652500087F2500083D260008C125000845
:102500003D2600083D2600083D2600083D2600081F
:102510003D2600083D2600083D2600083D2600080F
:102520003D2600083D2600083D2600083D260008FF
:102530003D2600083D2600083D2600083D260008EF
:102540003D2600083D2600083D2600083D260008DF
:102550003D2600083D2600083D26000865250008A8
:10256000652500087B684FF0FF321A6069E07B68E0
:1025700000221A6065E07B6800221A6061E0BB6897
:1025800000221A60BB68043300221A60BB6808335B
:1025900000221A60BB680C3300221A6051E07B688D
:1025A00000221A604DE0BB689A687B681A6048E0B8
:1025B0007B6800221A6044E07B6800221A6040E0D9
:1025C000FFF7A4FE002344E0BB681B6823491846BC
:1025D00000F0B9FE0346002B1AD1BB6804331B6818
:1025E000002B03D17B6801221A602AE0BB68043308
:1025F0001B68042B03D17B6802221A6021E0BB68B0
:1026000004331B68082B03D17B6803221A6018E08F
:102610007B684FF0FF321A6013E0BB681B68022B27
:1026200003D0BB681B68032B03D17B6800221A60B0
:1026300007E0BB689A687B681A6002E0002308E044
:1026400000BF7B689B699A1C7B689A61012300E04C
:10265000002318461837BD4680BD00BF0845000856
:1026600080B400AF114A114B1B6843F001031360A3
:102670000E4B00229A600D490C4B1A680C4B13400C
:102680000B600A4B0B4A5A60084A084B1B6823F43C
:1026900080231360054B0022DA60074B4FF0006285
:1026A0009A6000BFBD4680BC704700BF0038024042
:1026B000FFFFF6FE1030002400ED00E080B487B08C
:1026C00000AF00233B6100237B610223FB600023FA
:1026D000BB6002237B60324B9B6803F00C033B61C1
:1026E0003B69042B07D0082B09D0002B3FD12D4B81
:1026F0002D4A1A603FE02B4B2C4A1A603BE0284BD6
:102700005B6803F480039B0DBB60254B5B6803F0A3
:102710003F037B60BB68002B0DD0244A7B68B2FB73
:10272000F3F21F4B596847F6C0730B409B0903FB3C
:1027300002F37B610CE01C4A7B68B2FBF3F2184B9E
:10274000596847F6C0730B409B0903FB02F37B619A
:10275000134B5B6803F440331B0C01335B00FB60DD
:102760007A69FB68B2FBF3F30E4A136003E00D4B8A
:102770000D4A1A6000BF0A4B9B6803F0F0031B0967
:102780000B4AD35C3B61074B1A683B6922FA03F39F
:10279000044A136000BF1C37BD4680BC704700BFB1
:1027A00000380240040000200024F40040787D013D
:1027B0003845000880B400AFBFF34F8FBFF36F8F71
:1027C000084B0022C3F85022064A064B5B6943F4CB
:1027D00000335361BFF34F8FBFF36F8F00BFBD4610
:1027E00080BC704700ED00E080B485B000AF1D4BA9
:1027F0000022C3F88420BFF34F8F1A4BD3F88030E8
:102800007B607B685B0BC3F30E03FB607B68DB08BC
:10281000C3F30903BB601349FB685A0143F6E07335
:102820001340BA6892071343C1F86032BB685A1E5E
:10283000BA60002BEFD1FB685A1EFA60002BE5D17D
:10284000BFF34F8F074A074B5B6943F480335361F3
:10285000BFF34F8FBFF36F8F00BF1437BD4680BCEF
:10286000704700BF00ED00E080B582B000AF786037
:10287000396000F011F8064B1B681946054800F056
:1028800033FC00F075F94FF47A7000F081F8FEE740
:10289000040000204845000880B500AFFFF78AFF1C
:1028A000FFF7A2FFFDF74CFE00F004F8FFF706FF6C
:1028B00000BF80BD80B594B000AF0023BB602B4A41
:1028C0002A4B1B6C43F080531364284B1B6C03F0A2
:1028D0008053BB60BB6800237B60254A244B1B6888
:1028E00043F440431360224B1B6803F440437B6076
:1028F0007B6801233B624FF480337B624FF480039B
:10290000FB6319233B644FF4D8737B640223BB64DD
:102910000923FB640223BB6307F120031846FDF77C
:10292000D7FFFDF785FF0F23FB6002233B610023E8
:102930007B614FF4A053BB614FF48053FB6107F1FF
:102940000C0307211846FEF74DFBFEF71FFE02465B
:10295000084BA3FB02239B091846FDF735FF042013
:10296000FDF73EFF00BF5037BD4680BD0038024036
:1029700000700040D34D621080B500AFFDF712FE2D
:1029800000BF80BD80B400AF00BFBD4680BC7047B3
:1029900080B58CB000AF78600023BB61BB69FB6180
:1029A000FB693B623B6A7B625A4800F017FC0023DC
:1029B000BB6282E000F020F90346FB604FF48041E7
:1029C000554800F0BBF800F017F90246FB68D31A2F
:1029D0007A6A13447B62514A4F4B104619464FF4B2
:1029E00080331A4600F019FB00F006F90346FB603D
:1029F0004FF480637B610023FB6210E0FB6A9B0164
:102A0000002B00DA03339B109B00434A1344444AD3
:102A10001021184600F0FAF8FB6A0133FB62FA6AEB
:102A20007B699A42EADB00F0E7F80246FB68D31ABA
:102A30003A6A13443B6200F0DFF80346FB60002370
:102A4000FB6211E0FB6A9B01002B00DA03339B1051
:102A50009B00314A1344324A6FF00F01184600F0D0
:102A6000D5F8FB6A0133FB62FA6A7B699A42E9DBBB
:102A700000F0C2F80246FB68D31AFA691344FB61FE
:102A800000F0BAF80346FB604FF480422349224825
:102A900000F0B4FA386100F0AFF80246FB68D31AD0
:102AA000BA691344BB613B69002B03D01D4800F099
:102AB0008DFB07E0BB6A0133BB62BA6A7B689A424E
:102AC000FFF678AF7968184800F00EFB7B687A6AE9
:102AD000B2FBF3F31946154800F006FB7B683A6A2F
:102AE000B2FBF3F31946124800F0FEFA7B68FA696C
:102AF000B2FBF3F319460F4800F0F6FA7B68BA69A7
:102B0000B2FBF3F319460C4800F0EEFA00BF303781
:102B1000BD4680BDBABAADDE6C0201203002002095
:102B2000604500087045000880450008A045000881
:102B3000C0450008D8450008F045000890B585B0AC
:102B400000AF786039600023FB6009E07C68231DDA
:102B50007B6000F06BFB03462360FB680133FB6086
:102B6000FA683B689A42F1DB00BF1437BD4690BD5E
:102B700080B582B000AF00237B601A4A194B1B6CF2
:102B800043F008031364174B1B6C03F008037B60CE
:102B90007B68154B154A1A60134B4FF0FF32DA6011
:102BA000134B1B68134AA2FB0323DB0C9BB2013BB4
:102BB0001A460D4B5A600C4B00221A610A4B002238
:102BC0009A60094B00225A610748FEF707FD064B41
:102BD0001B6800225A620448FEF7C2FD00BF083796
:102BE000BD4680BD0038024030020120000C00408C
:102BF0000400002083DE1B4380B400AF024B5B6AFD
:102C00001846BD4680BC7047000C0040B0B48BB085
:102C100000AFF860B9607A60BB68012B40F38C802C
:102C20003422BB6892FBF3F306337B610023FB6124
:102C3000BA686FF0404313449B00FA6813441B6862
:102C40003B62FA69834B1344FB61FB699B0803F009
:102C500003033B610023BB6131E0BB6901339B008F
:102C6000FA6813441B687B62BB699B00FA681344D3
:102C7000BA699200F9680A4411683A6A50097A6A96
:102C8000920050407A6AD4083A6A120162401044B5
:102C9000FC697A6A5440BA6902F003053A696A40ED
:102CA00092007D682A4415683A6A6A40224442408C
:102CB0000A441A601B683B62BB690133BB61BB6895
:102CC0005A1EBB699A42C8DCFB681B687B62BA6803
:102CD0006FF0404313449B00FA681A44B9686FF0E0
:102CE00040430B449B00F9680B4419683B6A580940
:102CF0007B6A9B0058407B6ADC083B6A1B0163408F
:102D00001844FC697B6A5C40BB6903F003053B69BE
:102D10006B409B007D682B441D683B6A6B402344DD
:102D200043400B44136013683B627B69013B7B614A
:102D30007B69002B85D188E0BB68B3F1FF3F80F24F
:102D40008480BB685B42BB603422BB6892FBF3F3B8
:102D500006337B617B693F4A02FB03F3FB61FB683F
:102D60001B687B62FB699B0803F003033B61BB6844
:102D7000013BBB6133E0BA696FF0404313449B00F1
:102D8000FA6813441B683B62BB699B00FA681344F2
:102D9000BA699200F9680A4411683A6A50097A6A75
:102DA000920050407A6AD4083A6A12016240104494
:102DB000FC697A6A5440BA6902F003053A696A40CC
:102DC00092007D682A4415683A6A6A40224442406B
:102DD0008A1A1A601B687B62BB69013BBB61BB69D5
:102DE000002BC8D1BA686FF0404313449B00FA68C7
:102DF00013441B683B62FB681A683B6A59097B6A8B
:102E00009B0059407B6AD8083B6A1B014340194428
:102E1000F8697B6A5840BB6903F003043B6963406F
:102E20009B007C6823441C683B6A634003444B401E
:102E3000D21AFB681A60FB681B687B62FA69064B52
:102E40001344FB61FB69002B8CD100BF2C37BD46BE
:102E5000B0BC7047B979379E4786C861014B186886
:102E6000704700BF6C000020014900F0A9B800BF06
:102E7000B5360008002310B5044603604360836044
:102E800081814366C28103614361836119460822DF
:102E90005C3000F0CDF8054B6362054BA362054B37
:102EA000E362054B2462236310BD00BFC1320008FA
:102EB000E33200081B3300083F33000870B5682375
:102EC0004D1E5D430E4605F1740100F0B9F804464D
:102ED00040B1002180E842000C30A06005F168029A
:102EE00000F0A6F8204670BD836910B5044633BBD8
:102EF0008364C3640365124B124A1B688262984262
:102F000004BF0123836100F01FF86060204600F0D9
:102F10001BF8A060204600F017F80022E0600421B2
:102F20006068FFF7A7FF01220921A068FFF7A2FF51
:102F300002221221E068FFF79DFF0123A36110BD6B
:102F40006C470008692E0008F8B51C4B1E68B36971
:102F5000074613B93046FFF7C7FF4836B4687368B1
:102F6000013B04D4B4F90C507DB16834F8E7336800
:102F70000BB13668F2E704213846FFF79FFF306057
:102F80000028F6D10C233B60F8BD4FF6FF73E381B8
:102F90000123A38165662560A56065602561656183
:102FA000A5610822294604F15C0000F041F8656340
:102FB000A563A564E5642046F8BD00BF6C47000822
:102FC0002DE9F8438046894600F14804002694B173
:102FD000A5686768013F0CD4AB89012B07D9B5F907
:102FE0000E30013303D029464046C84706436835B2
:102FF000F0E72468EBE73046BDE8F88310B5013907
:103000000244904207D010F8013B11F8014FA3424F
:10301000F7D0181B10BD002010BD10B5431E0A4488
:10302000914204D011F8014B03F8014FF8E710BDAD
:1030300002440346934202D003F8011BFAE77047AB
:1030400070B5CD1C25F0030508350C2D38BF0C25B7
:10305000002D064603DA0C233360002070BDA94220
:10306000F9D81F4B1C681A462146A1B10B685B1B9F
:103070000ED40B2B03D90B60CC18CD501EE08C4224
:103080000DBF63684B686360136018BF0C4615E0A2
:103090000C464968E9E7134C23681BB9304600F039
:1030A000FFF820602946304600F0FAF8431CD2D0E1
:1030B000C41C24F00304A0420AD1256004F10B00D3
:1030C000231D20F00700C31A09D05A42E25070BDF8
:1030D000211A304600F0E4F80130EED1BBE770BDB4
:1030E00028020020240200200FB40A4B13B51C68EC
:1030F00024B1A36913B92046FFF7F6FE05AB049A85
:10310000A1680193204600F035FD02B0BDE81040F3
:1031100004B070476C00002070B50E46054618B12B
:1031200083690BB9FFF7E0FEAB69AC6813B92846B9
:10313000FFF7DAFE224B9C4201D16C6808E0214B7C
:103140009C4201D1AC6803E01F4B9C4208BFEC6875
:10315000A3891B0701D523693BB92146284600F006
:10316000A3F910B14FF0FF3070BD013EA36816F80F
:10317000011F013BA36091B1002B04DAA2699342C5
:1031800006DB0A2904D023685A1C22601970EDE777
:103190002246284600F022F90130E7D1E2E7002B71
:1031A00008DA22460A21284600F018F90130D9D061
:1031B0000A2070BD23680A205A1C2260187070BD56
:1031C000084700082847000848470008024B014606
:1031D0001868FFF7A1BF00BF6C00002038B5124B84
:1031E0001C68A36B0546D3B9182000F0FFFA43F220
:1031F0000E33A06303804AF6CD33438041F234237B
:1032000083804EF26D63C3804DF6EC63038105232A
:1032100043810B23838101220023C0E90423A36B94
:1032200000221D615A6138BD6C000020194B10B599
:103230001C68A36BD3B9182000F0D8FA43F20E3300
:10324000A06303804AF6CD33438041F23423838068
:103250004EF26D63C3804DF6EC6303810523438119
:103260000B23838101220023C0E90423A16B0A4CB4
:103270000B694869094A5C4302FB0040A3FB022337
:103280000132034443F10003C1E9042323F0004069
:1032900010BD00BF6C0000202DF451582D7F954CBF
:1032A00038B5064C0023054608462360FEF78AFB26
:1032B000431C02D1236803B12B6038BD2C020020CF
:1032C00010B50C46B1F90E1000F00CFF0028ABBF92
:1032D000636DA3891B1823F48053ACBF6365A3817E
:1032E00010BD2DE9F0411F468B89DB0505460C46D4
:1032F000164605D502230022B1F90E1000F004FA9B
:10330000A389B4F90E1023F48053A38132463B46BF
:103310002846BDE8F04100F0B5B810B50C46B1F94B
:103320000E1000F0F1F9431CA38915BF606523F46A
:10333000805343F48053A38118BFA38110BDB1F91A
:103340000E1000F01FB910F8012B11F8013B012AF3
:1033500028BF9A42F7D0D01A7047034613F8012BC2
:10336000002AFBD1181A0138704730B5141E0546E3
:103370009BB0184604DA8B232B604FF0FF301DE022
:103380004FF40273ADF80C3014BF04F1FF33234641
:10339000029305934FF6FF7300910491ADF80E3040
:1033A00002461E9B6946284600F0C8FA431CBCBF73
:1033B0008B232B6014B1009B00221A701BB030BD10
:1033C00007B5009313460A46014603480068FFF715
:1033D000CCFF03B05DF804FB6C000020F8B50F468D
:1033E0001446064618B183690BB9FFF77DFD224BE1
:1033F0009C4201D1746808E0204B9C4201D1B46822
:1034000003E01F4B9C4208BFF468A369A360A38933
:103410001A0709D523693BB123682069181A636923
:103420009842FDB20FDB08E02146304600F03CF840
:103430000028F1D04FF0FF30F8BD2146304600F0B3
:1034400039F90028F6D1A368013BA36023685A1C10
:1034500022601F706269431C934204D0A389DB077A
:1034600007D50A2D05D12146304600F023F9002862
:10347000E0D12846F8BD00BF0847000828470008EB
:103480004847000838B5074C054608461146002253
:1034900022601A46FEF78AFD431C02D1236803B15D
:1034A0002B6038BD2C020020324B70B51D680646DB
:1034B0000C4625B1AB6913B92846FFF715FD2E4B15
:1034C0009C4201D16C6808E02C4B9C4201D1AC6855
:1034D00003E02B4B9C4208BFEC68B4F90C309AB265
:1034E00015071DD4D00602D4092232603AE05107F4
:1034F00012D5616B41B104F14403994202D03046C8
:1035000000F07CF900236363A38923F02403A381E3
:103510000023636023692360A38943F00803A38128
:1035200023694BB9A38903F42073B3F5007F03D05B
:103530002146304600F01EF9A28912F0010305D0A1
:103540000023A36063695B42A36103E0920758BF55
:103550006369A36023695BB9B4F90C3003F08000A0
:1035600080B230B143F04003A3814FF0FF3070BD13
:10357000002070BD6C0000200847000828470008A4
:103580004847000838B5064C002305460846236026
:10359000FEF760FD431C02D1236803B12B6038BDE8
:1035A0002C0200208A892DE9F041054610070C46BF
:1035B00059D44B68002B02DC0B6C002B17DDE66A3C
:1035C000AEB102F48052002392B22F682B600AB190
:1035D000606D15E0216A01232846B047411C0FD1D8
:1035E0002B686BB11D2B01D0162B03D12F6000204F
:1035F000BDE8F081A38943F04003A381BDE8F081D9
:10360000A3895A0705D56368C01A636B0BB1236C95
:10361000C01A00230246E66A216A2846B047431CC6
:10362000A38906D129681D293AD8214ACA40D6075C
:1036300036D500226260D9042269226004D5421C7A
:1036400001D12B6803B96065616B2F600029CED072
:1036500004F14403994202D0284600F0CFF800203C
:103660006063BDE8F0810F69002FC0D093070E683A
:1036700008BF4B690F6018BF0023C7EB06088B60BB
:1036800002E00744C0EB0808B8F1000FAFDD434685
:103690003A46216AA66A2846B0470028F1DCA38989
:1036A00043F04003A3814FF0FF30BDE8F08100BF3D
:1036B0000100402038B50B6905460C46DBB118B156
:1036C00083690BB9FFF710FC0C4B9C4201D16C686D
:1036D00008E00B4B9C4201D1AC6803E0094B9C42D3
:1036E00008BFEC68B4F90C302BB121462846BDE880
:1036F0003840FFF757BF002038BD00BF084700081B
:10370000284700084847000838B5074C05460846D2
:103710001146002222601A46FEF716FC431C02D115
:10372000236803B12B6038BD2C02002070B50E4613
:10373000B1F90E10002990B014461D4606DA002398
:103740002B60B3891A060ED540230EE001AA00F0C3
:10375000DBFC0028F3DB029A02F47042A2F500536E
:103760005A425A412A604FF480630020236010B00F
:1037700070BD00008B8973B59E0705460C4610D4BA
:1037800001AB6A46FFF7D2FF009906462846FFF7CD
:1037900057FC68B9B4F90C309A0522D443F00203FF
:1037A000A38104F14703236023610123636118E0CF
:1037B0000D4BAB62A389206043F08003A381009B83
:1037C0006361019B20614BB1B4F90E10284600F0F3
:1037D000ADFC18B1A38943F00103A381A089304354
:1037E000A08102B070BD00BF692E0008024B0146E7
:1037F0001868FFF725BC00BF6C00002030B5002919
:103800003ED051F8042C0B1F1E49002AB8BF9B184C
:103810000A680C4612B95A600B6030BD9A420ED944
:1038200019685818824204BF106852685A6004BF71
:1038300009181960236030BD994203D80A465168BF
:103840000029F9D1146815199D420AD11B68234437
:10385000D0188142136013D10868034413604B6889
:103860000DE002D90C23036030BD18681C18A1427A
:1038700004BF0C684968596004BF001918605360A0
:1038800030BD00BF280200202DE9F0478E689E421F
:1038900082460C46914698463ED88A8912F4906F2B
:1038A0003AD0256809696F1A6569022305EB450559
:1038B00095FBF3F57B1C43449D4238BF1D465305E1
:1038C0000FD52946FFF7BCFB064698B13A46216959
:1038D000FFF7A3FBA38923F4906343F08003A38144
:1038E00013E02A4600F09FFC064670B92169504655
:1038F000FFF784FF0C23CAF80030A38943F040038C
:10390000A3814FF0FF30BDE8F087266165613E443A
:10391000ED1B2660A5604646464528BF4646324612
:103920004946206800F064FCA3689B1BA3602368E1
:103930001E4426600020BDE8F08700002DE9F04F0E
:103940009DB0804603938B891C060D4616460DD507
:103950000B695BB94021FFF773FB2860286118B938
:103960000C23C8F80030CDE040236B61002309939D
:1039700020238DF82930DFF89CB130238DF82A30D0
:1039800037463C4614F8013B1BB9B7EB060910D08B
:1039900003E0252BF9D02746F3E74B46324629466C
:1039A0004046FFF771FF013000F0A780099B4B44B0
:1039B00009933B78002B00F0A08000234FF0FF32EA
:1039C00004930793059206938DF853301A930126BA
:1039D000052221784E4800F0BBFB671C049B38B1E0
:1039E0004B4A801A06FA00F0184304903C46EFE771
:1039F000D90644BF20228DF853201A0744BF2B223A
:103A00008DF8532022782A2A03D0079A00210A2011
:103A10000BE0039A111D12680391002A10DA52423A
:103A200043F00200079204900BE0274601343B78F4
:103A3000303B092B03D800FB02320121F5E701B12D
:103A400007923B782E2B1ED17B782A2B0AD1039B21
:103A50001A1D1B680392002BB8BF4FF0FF330237CB
:103A6000059310E000230593781C19460A240746A5
:103A700001303A78303A092A03D804FB01210123A6
:103A8000F5E703B1059103223978224800F060FB85
:103A900040B14023CBEB000003FA00F0049B184335
:103AA0000490013739781C488DF8281006227E1CB6
:103AB00000F04EFB88B1194B33B9039B073323F059
:103AC00007030833039314E003AB00932A46144B17
:103AD00004A94046AFF3008007E003AB00932A46F9
:103AE0000F4B04A9404600F0D7F9B0F1FF3F8246E2
:103AF00003D0099B5344099342E7AB895B0601D489
:103B0000099801E04FF0FF301DB0BDE8F08F00BF15
:103B100070470008764700087A4700080000000058
:103B2000893800089368013B002B10B4936008DAD1
:103B30009469A34202DBCBB20A2B02D110BCFFF77F
:103B40004DBC1368581C10601970C8B210BC704787
:103B5000F8B506460F461446D518AC4208D03A468A
:103B600014F8011B3046FFF7DDFF431CF5D100E0E0
:103B70000020F8BD2DE9F04F9DB00C461746039389
:103B8000064618B183690BB9FFF7AEF97F4B9C422B
:103B900001D1746808E07E4B9C4201D1B46803E017
:103BA0007C4B9C4208BFF468A38918070CD5236995
:103BB00053B10023099320238DF8293030238DF849
:103BC0002A30DFF8D4B144E021463046FFF76CFCE0
:103BD0000028EED04FF0FF30D5E0039A111D126897
:103BE0000391002A80F28C80524243F00200079237
:103BF000049098F800302E2B00F08480032298F86F
:103C00000010654800F0A4FA48B14023CBEB000057
:103C100003FA00F0049B1843049008F1010898F897
:103C200000105E488DF82810062208F1010700F008
:103C30008FFA002800F09580594B002B40F08880C7
:103C4000039B073323F0070308330393099B534473
:103C50000993B846454615F8013B1BB9B8EB07096F
:103C60000FD003E0252BF9D0A846F3E74B463A46A0
:103C700021463046FFF76CFF01307FD0099B4B4453
:103C8000099398F80030002B78D000234FF0FF32D2
:103C900004930793059206938DF853301A930127E6
:103CA000052229783F4800F053FA05F10108049BEA
:103CB00038B13C4A801A07FA00F018430490454690
:103CC000EEE7D90644BF20228DF853201A0744BFDF
:103CD0002B228DF853202A782A2A3FF47EAF079AA8
:103CE00000210A20A846013598F80030303B092B06
:103CF00003D800FB02320121F4E700293FF479AF39
:103D0000079276E798F801302A2B0BD1039B1A1DF6
:103D10001B680392002BB8BF4FF0FF3308F1020875
:103D200005936BE70023059308F1010019460A2566
:103D30008046013098F80020303A092A03D805FB64
:103D400001210123F4E7002B3FF458AF059155E71B
:103D500003AB00932246144B04A93046AFF3008016
:103D600007E003AB009322460F4B04A9304600F056
:103D700093F8B0F1FF3F82467FF468AFA3895B06FA
:103D80003FF528AF09981DB0BDE8F08F084700083F
:103D90002847000848470008764700087A47000887
:103DA0000000000070470008513B00082DE9F04773
:103DB00091461F460A698B68DDF820809342B8BFA0
:103DC0001346C9F8003091F8432006460C4612B15C
:103DD0000133C9F800302368990642BFD9F8003092
:103DE0000233C9F80030256815F0060510D104F13A
:103DF000190A07E00123524639463046C0470130D0
:103E00001AD00135E368D9F800209B1A9D42F1DBF6
:103E100094F843302268003318BF012392060FD56F
:103E2000E1185A1C302081F84300224494F84510D0
:103E300082F84310023303E04FF0FF30BDE8F08713
:103E400004F1430239463046C0470130F4D02268BD
:103E5000D9F80050E36802F00602042A08BF5D1B8F
:103E60002269A3680CBF25EAE57500259342C4BF0B
:103E70009B1AED184FF000091A344D4509D0012363
:103E8000224639463046C0470130D5D009F10109F4
:103E9000F3E70020BDE8F0872DE9F04317460A7EDE
:103EA00085B06E2A984606460C460C9B01F1430EDF
:103EB00000F0AE8011D8632A22D009D8002A00F081
:103EC000BB80582A40F0CA8081F84520834955E0DC
:103ED000642A1ED0692A1CD0C0E0732A00F0B0808A
:103EE00009D86F2A2ED0702A40F0B8800A6842F0B4
:103EF00020020A603EE0752A24D0782A3AD0ADE04C
:103F00001A6801F14205111D1960136884F84230E6
:103F1000A8E021681A6811F0800F02D0111D196005
:103F200008E011F0400F02F10401196002D0B2F96B
:103F3000003000E01368002B3CDA2D225B4284F84D
:103F4000432037E021681A6811F0800F02D0111D5C
:103F5000196007E011F0400F02F10401196001D06F
:103F6000138800E01368227E5C496F2A14BF0A227E
:103F700008221BE078225A4984F8452022681868F4
:103F800012F0800F00F104051D6003D1550601D524
:103F9000038800E00368D00744BF42F0200222609B
:103FA0001BB9226822F0200222601022002084F82F
:103FB000430001E049490A226568A560002D08DB3D
:103FC000206820F0040020602BB9002D7DD17546BB
:103FD0000CE0002B79D07546B3FBF2F002FB1033F6
:103FE000CB5C05F8013D03460028F5D1082A0BD12A
:103FF0002368DA0708D5236962689A42DEBF302356
:1040000005F8013C05F1FF35C5EB0E0323612EE0F9
:1040100008681A68496910F0800F03D0101D1860F5
:10402000136808E010F0400F02F1040018601368F4
:1040300001D0198000E0196000232361754616E065
:104040001A68111D1960156862680021284600F081
:104050007FF808B1401B6060636804E004F142052A
:1040600084F8422001232361002384F84330CDF8F3
:1040700000803B4603AA21463046FFF797FE0130F9
:1040800002D14FF0FF3026E023692A4639463046F8
:10409000C0470130F5D023689B0710D5002504F1F7
:1040A000190907E001234A4639463046C047013026
:1040B000E7D00135E368039A9B1A9D42F2DBE06882
:1040C000039B9842B8BF184605E00B7884F842304D
:1040D00004F142058AE705B0BDE8F0838147000896
:1040E0009247000838B5074C05460846114600229D
:1040F00022601A46FDF768FE431C02D1236803B113
:104100002B6038BD2C02002038B5074C0023054633
:10411000084611462360FEF715F8431C02D12368B8
:1041200003B12B6038BD00BF2C02002038B5064C0F
:104130000023054608462360FEF718F8431C02D109
:10414000236803B12B6038BD2C0200200000000062
:1041500001F0FF01102A2BDB10F0070F08D010F838
:10416000013B013A8B422DD010F0070F42B3F6D13C
:10417000F0B441EA012141EA014122F007047FF055
:1041800000070023F0E80256083C85EA010586EAAC
:10419000010685FA47F5A3FA87F586FA47F6A5FAE8
:1041A00087F68EB9EED1F0BC01F0FF0102F00702F4
:1041B00032B110F8013B013A83EA010313B1F8D19F
:1041C0000020704701387047002D06BF3546033880
:1041D000073815F0010F07D1013015F4807F02BFB9
:1041E000013015F4C03F0130F0BC0138704700BF0A
:1041F000884210B501EB020301D8421E0BE0984241
:10420000FBD28118D21AD34204D013F8014D01F821
:10421000014DF8E710BD994204D011F8014B02F8A6
:10422000014FF8E710BDF8B5074615460E4621B90F
:104230001146BDE8F840FEF703BF1AB9FFF7DEFAF2
:104240002846F8BD00F015F885420ED929463846B3
:10425000FEF7F6FE044650B131462A46FEF7DDFE73
:1042600031463846FFF7CAFA01E03046F8BD20462D
:10427000F8BD51F8040C0028BEBF091851F8043CE1
:10428000C0180438704700002E2E2F7379737465A0
:104290006D2F7372632F73746D333266372D6861BF
:1042A0006C2F73746D3332663778785F68616C5F3A
:1042B000636F727465782E630000000000000000D8
:1042C0000102030401020304060708092E2E2F73BE
:1042D000797374656D2F7372632F73746D333266E7
:1042E000372D68616C2F73746D3332663778785F61
:1042F00068616C5F7263632E630000002E2E2F7363
:10430000797374656D2F7372632F73746D333266B6
:10431000372D68616C2F73746D3332663778785F30
:1043200068616C5F74696D2E6300000061626F727A
:104330007428292C2065786974696E672E2E2E00EA
:104340003A7474002F746D70000000002C206675A4
:104350006E6374696F6E3A20000000000000000078
:10436000617373657274696F6E20222573222066F3
:1043700061696C65643A2066696C65202225732248
:104380002C206C696E65202564257325730A000056
:104390006173736572745F706172616D2829206644
:1043A00061696C65643A2066696C65202225732218
:1043B0002C206C696E652025640A00000A0000004C
:1043C0006D61696E28617267633D25642C2061729E
:1043D00067763D5B000000002C2000002225732240
:1043E000000000005D293B0A000000005374616377
:1043F0006B206672616D653A0A0000002052302021
:104400003D2020253038580A00000000205231207D
:104410003D2020253038580A00000000205232206C
:104420003D2020253038580A00000000205233205B
:104430003D2020253038580A00000000205231323B
:10444000203D20253038580A00000000204C522022
:104450003D2020253038580A00000000205043201D
:104460003D2020253038580A0000000020505352CB
:10447000203D20253038580A000000004653522FB6
:104480004641523A0A0000002043465352203D2044
:1044900020253038580A00002048465352203D203D
:1044A00020253038580A00002044465352203D2031
:1044B00020253038580A00002041465352203D2024
:1044C00020253038580A0000204D4D464152203DED
:1044D00020253038580A00002042464152203D2015
:1044E00020253038580A00004D6973630A00000027
:1044F000204C522F4558435F52455455524E3D2053
:10450000253038580A0000003A7474005B48617224
:10451000644661756C745D0A000000005B4275734F
:104520004661756C745D0A005B5573616765466131
:10453000756C745D0A0000000000000000000000BF
:10454000010203040607080953797374656D20633B
:104550006C6F636B3A20256C7520487A0A00000066
:10456000B4ED9D5CD7C2992946F24B1B35734A19AD
:10457000436F6D70617265206661696C65640000EF
:10458000526573756C74732061667465722025645E
:1045900020697465726174696F6E730A00000000AF
:1045A00047656E65726174652072616E646F6D201F
:1045B000646174613A20256C752075730A000000EF
:1045C000456E637279707420646174613A20256C61
:1045D000752075730A000000446563727970742059
:1045E000646174613A20256C752075730A000000BF
:1045F000436F6D7061726520646174613A20256C4F
:10460000752075730A000020202020202020202003
:104610002828282828202020202020202020202072
:1046200020202020202020881010101010101010A2
:1046300010101010101010040404040404040404E6
:10464000041010101010101041414141414101016E
:10465000010101010101010101010101010101014A
:104660000101101010101010424242424242020258
:10467000020202020202020202020202020202021A
:1046800002021010101020000000000000000000C6
:10469000000000000000000000000000000000001A
:1046A000000000000000000000000000000000000A
:1046B00000000000000000000000000000000000FA
:1046C00000000000000000000000000000000000EA
:1046D00000000000000000000000000000000000DA
:1046E00000000000000000000000000000000000CA
:1046F00000000000000000000000000000000000BA
:1047000000000000000000000000000000000000A9
:104710000000000000000000000000000000000099
:104720000000000000000000000000000000000089
:104730000000000000000000000000000000000079
:104740000000000000000000000000000000000069
:104750000000000000000000000000000000000059
:104760000000000000000000430000000C000020DA
:10477000232D302B2000686C4C006566674546474A
:1047800000303132333435363738394142434445CD
:10479000460030313233343536373839616263643C
:0347A0006566004B
:1047A400785634120024F400064600080000000085
:1047B4000847000828470008484700080000000090
:1047C400000000000000000000000000684700082E
:1047D40000000000000000000000000000000000D5
:1047E40000000000000000000000000000000000C5
:1047F40000000000000000000000000000000000B5
:104804000000000000000000000000000C00002078
:04481400325476980C
:04000005080001C925
:00000001FF
