:020000040800F2
:1000000000000520BD020008C1020008C50200086A
:100010004D040008510400086904000800000000B5
:100020000000000000000000000000008104000843
:1000300085040008000000008904000891160008EB
:10004000A1040008A1040008A1040008A1040008FC
:10005000A1040008A1040008A1040008A1040008EC
:10006000A1040008A1040008A1040008A1040008DC
:10007000A1040008A1040008A1040008A1040008CC
:10008000A1040008A1040008A1040008A1040008BC
:10009000A1040008A1040008A1040008A1040008AC
:1000A000A1040008A1040008A1040008A10400089C
:1000B000A1040008A1040008A1040008A10400088C
:1000C000A1040008A1040008A1040008A10400087C
:1000D000A1040008A1040008A1040008A10400086C
:1000E000A1040008A1040008A1040008A10400085C
:1000F000A1040008A1040008A1040008A10400084C
:10010000A1040008A1040008A1040008A10400083B
:10011000A1040008A1040008A1040008A10400082B
:10012000A1040008A1040008A1040008A10400081B
:10013000A1040008A1040008A1040008A10400080B
:10014000A1040008A1040008A1040008A1040008FB
:10015000A1040008A1040008A1040008A1040008EB
:10016000A1040008A1040008A1040008A1040008DB
:10017000A1040008A1040008A10400080000000078
:10018000A1040008A1040008A1040008A1040008BB
:10019000A1040008A1040008A1040008A1040008AB
:1001A000A1040008A1040008A1040008A10400089B
:1001B000A1040008A1040008A1040008A10400088B
:1001C000A1040008A1040008324C334D80B582B070
:1001D00001F03AF9AC420ED294E80C000C3454F819
:1001E000040C9842F6D952F8041B43F8041B9842B9
:1001F000F9D8AC42F0D3294D294B9D421ED2083587
:10020000DE1D0027761BF608013655F8084C55F818
:10021000042C94420ED2531E04F1010E20460021FC
:100220001B1B23F00303043372452CBF1A46042220
:1002300003F0ACF801370835B742E6D1194D01F0AB
:1002400015F9194C01A9684600F0A6FE2B1B032BDB
:1002500004DD54F8043B9847A542FAD1134D144CE1
:100260002B1B032B04DD54F8043B9847A542FAD11D
:10027000104C114D9DE8030001F064F9631B064624
:10028000032B04DD54F8043D9847A542FAD13046CB
:1002900000F020FEA4040008BC040008BC04000810
:1002A000CC040008CC040008CC040008CC040008EE
:1002B000CC040008CC040008CC04000874480047B3
:1002C000FEE700BF1EF0040F0CBFEFF30880EFF352
:1002D000098071466F4A1047594B1A6B920770B5E7
:1002E00002D5DB6A002B00DBFEE786694BF6AB63C9
:1002F00032889A42F8D1044690E82800013B302B1E
:10030000F2D801A252F823F0CD030008F703000849
:10031000E9030008E90300080904000811040008C3
:10032000F7030008F7030008E3030008E3030008ED
:10033000E9020008E3030008E3030008E303000800
:10034000E3030008E3030008F7030008E3030008E1
:10035000F7030008E9020008E30300081704000897
:10036000E902000825040008E9020008E902000883
:10037000E9020008E9020008E9020008E9020008B1
:10038000E9020008E9020008E9020008E9020008A1
:10039000E9020008E9020008E9020008E902000891
:1003A000E9020008E9020008E9020008E902000881
:1003B000E9020008E9020008E9020008E902000871
:1003C000E9020008E3030008E30300081D49286868
:1003D00003F005F928B96B6833B1042B11D0082B51
:1003E0000CD04FF0FF3323600236154B4FF0004224
:1003F000A661DA6270BD00232360F5E70323236062
:10040000F2E702232360EFE72B68023B012BF2D9CE
:10041000AB682360E8E700232B606B60AB60EB60A8
:100420008669E1E7BFF34F8F0549074BCA6802F4BD
:10043000E0621343CB60BFF34F8F00BFFDE700BF07
:1004400000ED00E0704100080400FA05FEE700BF7F
:100450001EF0040F0CBFEFF30880EFF30980714624
:100460000D4A1047FEE700BF1EF0040F0CBFEFF36C
:100470000880EFF309807146084A1047FEE700BF85
:10048000FEE700BFFEE700BFFEE700BF70470000C9
:10049000C9010008D9020008650400087D040008AD
:0404A000FEE700BFB4
:1004A40074480008000000207C0000207448000804
:1004B40000000010000000107C000020D80900207B
:0804C400000000100000001010
:1004D00010B5044600F0CEFB064BA3FB00308009AC
:1004E00000F078F8214600224FF0FF3000F038F895
:1004F000002010BDD34D6210074A032008B51368D1
:1005000043F40073136000F017F80F20FFF7E0FFCB
:1005100001F0D4F8002008BD003C0240024A1368F4
:1005200001331360704700BF7C000020014B186846
:10053000704700BF7C00002007494FF6FF02000211
:10054000064B10B4CC6800F4E06022405DF8044B28
:1005500013430343CB60704700ED00E00000FA0551
:10056000194BDB68C3F3022330B4C3F107051C1D2C
:10057000042D28BF0425062C19D9033B01249C40D7
:10058000013C22400124002804FA05F404F1FF3460
:1005900001EA040101FA03F342EA03020ADB120151
:1005A0000A4BD2B2034483F8002330BC70470022C8
:1005B0001346E7E700F00F001201054BD2B20344E7
:1005C0001A7630BC704700BF00ED00E000E100E0AB
:1005D000FCEC00E00138B0F1807F0DD2074B002227
:1005E000072130B4F025064C5860104684F823509B
:1005F0009A60196030BC70470120704710E000E03D
:1006000000ED00E0044A042813680CBF43F0040323
:1006100023F004031360704710E000E030B51C4A7B
:1006200083B000211B4B01911C46116C41F080519D
:100630001164126C02F080520192019A1A6842F41D
:1006400080321A60FFF772FF054605E0FFF76EFF84
:10065000401BB0F57A7F18D863680E4AD903F5D5E8
:100660001368144643F400331360FFF75FFF054639
:1006700005E0FFF75BFF401BB0F57A7F05D86368A4
:100680009B03F6D5002003B030BD032003B030BD7E
:1006900000380240007000400368F0B5DE0783B008
:1006A000054651D5AA498A6802F00C02042A00F0D6
:1006B00031818A6802F00C02082A00F02781A44BDD
:1006C0001A681C4622F480321A601A6822F48022CA
:1006D0001A601A6822F480321A60FFF727FF064674
:1006E00006E0FFF723FF801BB0F5FA7F00F2FD80E4
:1006F0002368974A9903F4D4136823F48033136072
:100700006B68B3F5803F00F0AA81B3F5A02F00F02D
:100710004981116821F480211160116821F4803130
:100720001160002B40F046811446FFF7FFFE06469D
:1007300006E0FFF7FBFE801BB0F5FA7F00F2D580E4
:1007400023689B03F5D42B689F0731D5804A9168B5
:1007500011F00C0F00F0D080916801F00C01082915
:1007600000F0C680EB68002B00F00881784B1A6817
:100770001C4642F001021A60FFF7D8FE064605E06B
:10078000FFF7D4FE801B642800F2AF802368704A14
:100790009807F5D51368F82191FAA1F12869B1FA03
:1007A00081F123F0F80300FA01F10B4313602B6889
:1007B0001A0721D45C0738D4AA69D2B1644B99686E
:1007C00001F00C01082900F09E80022A1A681C46DC
:1007D00022F080721A6000F0FC80FFF7A7FE054649
:1007E00004E0FFF7A3FE401B64287ED823689B012A
:1007F000F7D4002003B0F0BD6B69002B00F09480AB
:10080000534B5A6F1C4642F001025A67FFF78EFEA7
:10081000064604E0FFF78AFE801B642865D8636FF4
:100820009B07F7D52B685C07C6D5494A0021494B81
:100830000191116C1C4641F080511164126C02F060
:1008400080520192019A1A6842F480721A60FFF78E
:100850006DFE064604E0FFF769FE801B642844D85D
:100860002368D805F7D53A4B41F288371A6F1C46F2
:1008700022F001021A671A6F22F004021A671A6F37
:1008800022F001021A67FFF751FE064604E0FFF767
:100890004DFE801BB84228D8236F2D4A9907F6D405
:1008A000136F23F001031367AB68012B00F0F8808E
:1008B000052B00F0DD80116F21F004011167116F2D
:1008C00021F001011167002B40F0DA80144641F25B
:1008D0008836FFF72BFE0746236F98077FF56CAF2E
:1008E000FFF724FEC01BB042F6D9032003B0F0BDD1
:1008F000526856023FF536AF154A126894072BD559
:10090000EA68012A28D0012003B0F0BD4A685402E9
:100910007FF5D5AE0E4A126890037FF515AF6A6871
:10092000002A7FF411AFEEE7094B5A6F1C4622F004
:1009300001025A67FFF7FAFD064604E0FFF7F6FDED
:10094000801B6428D1D8636F9F07F7D46AE700BF84
:100950000038024000700040564CF822216892FA9C
:10096000A2F22869B2FA82F221F0F80100FA02F24A
:100970000A4322601A077FF51DAF3DE74D4B1A6809
:100980001C4622F001021A60FFF7D0FD064604E083
:10099000FFF7CCFD801B6428A7D823689907F7D4FC
:1009A0002B6805E7136843F480231360136843F44E
:1009B00080331360FFF7BAFD3E4C064605E0FFF7B3
:1009C000B5FD801BB0F5FA7F8FD823689A03F6D562
:1009D000B9E6FFF7ABFD064604E0FFF7A7FD801B75
:1009E000642882D82368334A9901F6D447F6C07444
:1009F00094FAA4F44FF44033B4FA84FC93FAA3F3CA
:100A00004FF07060B3FA83F690FAA0F0E969B0FA9B
:100A100080FEAB6A2F6A6C6A0F435908E86A04FAD1
:100A20000CF4013947F0005500FA0EF0254301FAA5
:100A300006F314462B4303435360136843F080735B
:100A40001360FFF773FD054605E0FFF76FFD401BE0
:100A500064283FF64AAF23689A01F6D5C9E61368C1
:100A600023F480231360136843F480331360A1E7F9
:100A7000136F43F004031367136F43F0010313670D
:100A8000FFF754FD0B4C074641F28836236F9B0756
:100A90003FF592AEFFF74AFDC01BB042F6D924E7FE
:100AA000136F23F004031367136F43F001031367FD
:100AB000E6E700BF003802406C4A136803F00F03FA
:100AC0008B422DE9F0410C4605460CD2136823F009
:100AD0000F030B431360136803F00F03994258D0C0
:100AE0000120BDE8F08103689A0706D56048AA682E
:100AF000816821F0F0010A438260DF0724D56B682A
:100B00005B4A012B126800F08A80022B00F08E8075
:100B10009107E5D5564E41F28838B26822F00302BB
:100B20001343B360FFF702FD6B680746012B65D0E6
:100B3000022B05D16DE0FFF7F9FCC01B404572D8D0
:100B4000B36813F00C0FF6D1484A136823F00F0373
:100B500023431360136803F00F039C42C0D12B683A
:100B60005A0706D54248EA68816821F4E0510A43F1
:100B700082601B0707D53E4A2969936823F46043C6
:100B800043EAC10393600F20FFF7A2FC0020BDE8F9
:100B9000F08103689F0706D53548AA68816821F06F
:100BA000F0010A438260DE07DAD56B68304A012B18
:100BB000126858D0022B53D0910791D52C4C41F29A
:100BC0008837A26822F003021343A360FFF7AEFC4C
:100BD0006B680646012B32D0022B05D13AE0FFF7B5
:100BE000A5FC801BB8421ED8A36813F00C0FF6D1E9
:100BF000B5E7FFF79BFCC01B404514D8B36803F072
:100C00000C03042BF5D19FE7FFF790FCC01B404578
:100C100009D8B36803F00C03082BF5D194E79603C9
:100C20003FF578AF5CE70320BDE8F08190013FF528
:100C300071AF55E7FFF77AFC801BB842F3D8A36881
:100C400003F00C03042BF5D189E7FFF76FFC801B41
:100C5000B842E8D8A36803F00C03082BF5D17EE76F
:100C60009001ABD43CE79403A8D439E7003C0240A0
:100C70000038024030B42B4CA36803F00C03042B63
:100C80003CD0082B12D0284B264AF021926891FACA
:100C9000A1F1B1FA81F102F0F0022448CA402449DE
:100CA000805C23FA00F0086030BC704761686568BA
:100CB00001F03F026B0223D4606847F6C07393FAD9
:100CC000A3F347F6C0741849B3FA83F30440B1FBA9
:100CD000F2F124FA03F301FB03F2124B4FF440301C
:100CE0005B6890FAA0F003F44033B0FA80F023FA86
:100CF00000F001304000B2FBF0F3C5E70D4BC3E755
:100D0000616847F6C07393FAA3F347F6C075094CC0
:100D1000B3FA83F30D40B4FBF2F125FA03F301FBC0
:100D200003F2DAE7003802400024F40060410008D2
:100D30000000002040787D01704700BF002800F0CF
:100D40008780F8B590F839300446002B76D02368B8
:100D50000221404AB3F1804F84F83910A3EB020618
:100D60001A68B6FA86F64FEA56164AD0002E48D1CF
:100D700039493A488B4264D001F580618B4260D09A
:100D80001F1A3749B7FA87F77F098B4214BF3946D4
:100D900047F0010161B1304922F07002A0688B4236
:100DA00042EA000236D001F580618B4232D03946EA
:100DB0002B48834214BF084641F0010010F0FF07A2
:100DC00044D128492848834218BF8B420CBF0121D7
:100DD00000211FD0254FA0F59630834218BFBB429B
:100DE0000CBF0127002731D021498B4212D001F5D9
:100DF00080618B420ED0E06861681A60D8629962A7
:100E000013E0164822F07002A1681F1A0A43B7FACD
:100E100087F77F09216922F44072E5686068114311
:100E20001960DD62986236B92FB9012200205A613B
:100E300084F83920F8BD62691A63F6E7FFF77CFF92
:100E400085E71F1AB7FA87F77F09A4E70F46E1E79E
:100E500001207047000001400004004000040140F0
:100E6000000C0040004001400044014000480140A7
:100E7000001C0040034602220020196810B401241F
:100E800083F839200A6822430A6083F839405DF804
:100E9000044B70470C4A08B513688BB103300B49FB
:100EA00020F003001844884202D81060184608BD9C
:100EB00002F09CF90C224FF0FF330260184608BD87
:100EC00003490B461160E9E78000002000FC042084
:100ED000D8090020054B1825054C00B5002818BF7F
:100EE0001C4628462146ABBE0446FEE7230002000E
:100EF000260002002DE9F047002384B0DFF890803F
:100F00000327012401AECDF8048003970293204605
:100F10003146ABBE81461B4D0423CDF80480C5F895
:100F200000900397029320463146ABBE8246DFF81D
:100F300064900823CDF80480C9F800A003970293B9
:100F400020463146ABBE04460F4B621CD9F8006008
:100F50001C6014D000230D484FF0FF3140F83310CF
:100F600001330A4A142BF9D10023296896601160D5
:100F700014615360D360536104B0BDE8F087344618
:100F80001E60E7E7000100200401002008010020A6
:100F900070410008840000202DE9F0434F2383B006
:100FA000324C05460E4615270094E8460193384614
:100FB0004146ABBE07468FB1DFF8B4C0002301271E
:100FC000CCF80040237000234CF827302F60C6F87F
:100FD00000C0FFF78FFF03B0BDE8F083009B84F8EB
:100FE0004F7093F90020002AE6D03846DFF880C021
:100FF000DFF880E0B946B846B9F1000F1AD1DEF843
:10100000001011444978C9090CD1092A0AD0082FC7
:10101000D9DC222A21D0272A1FD04FF001094CF811
:1010200027304F4493F901200133002AE4D1002FE7
:10103000C9D1C3E720B1904212D04FF00109F1E7C6
:10104000DEF8001011444978C90901D1092AF4D108
:1010500083F800804FF00009E4E701331046DCE735
:10106000002083F800808146DCE700BF8800002074
:10107000D800002014000020224B2DE9F041064644
:10108000186884B00C46174608B1836BE3B1132E81
:101090001ED81D4D55F836305A1C19D002944FF009
:1010A0000608019301AC039740462146ABBE0446B7
:1010B000631C17D005EBC6053A1B6B68104613443A
:1010C0006B6004B0BDE8F08102F0D6F8132EE0D9D1
:1010D00002F08CF809234FF0FF320360104604B091
:1010E000BDE8F08102F082F8132506460027284665
:1010F0003946ABBE054622463560104604B0BDE811
:10110000F08100BF78000020080100203A4B2DE953
:10111000F0438046186883B00E46144610B1836BC6
:10112000002B3CD0B8F1130F3ED8344F57F838306D
:10113000591C39D0022C2BD8012C24D0022C13D0CE
:10114000E94600930A24019620464946ABBE044670
:10115000631C33D0002C4BDB07EBC80734467E60A2
:10116000204603B0BDE8F0830DF108090C2449F8CE
:10117000083D20464946ABBE05466A1C2CD02E448D
:1011800057F83830DDE707EBC8025268B618D7D5F4
:1011900002F02CF816234FF0FF340360E0E702F072
:1011A0006BF8B8F1130FC0D902F020F84FF0FF34FC
:1011B00009230360204603B0BDE8F08302F016F86F
:1011C00013250646002728463946ABBE054620466D
:1011D000356003B0BDE8F08302F008F8132406463A
:1011E000002720463946ABBE044634602C46B7E79C
:1011F0004FF0FF34B4E700BF780000200801002062
:101200002D4B2DE9F0410746186884B00C46164670
:1012100008B1836B03B3132F22D8284D55F837300C
:101220005A1C1DD002944FF00508019301AC03969F
:1012300040462146ABBE0446631C2AD0002C37DB57
:1012400005EBC700331BA64242681A44426011D026
:10125000184604B0BDE8F08102F00EF8132FDCD977
:1012600001F0C4FF09224FF0FF330260184604B0BA
:10127000BDE8F08101F0BAFF132506460024284698
:101280002146ABBE054623463560184604B0BDE88E
:10129000F08101F0ABFF13250646002728463946AA
:1012A000ABBE054623463560184604B0BDE8F08164
:1012B0004FF0FF33CCE700BF78000020080100208A
:1012C000234BF0B50546186883B008B1836B2BB388
:1012D000132D27D81F4F57F835305A1C22D06A1EBD
:1012E000012A11D902AE022446F8043D20463146B7
:1012F000ABBE0446631C1ED01CB94FF0FF3347F849
:101300003530204603B0F0BDB9683A699142E9D161
:101310004FF0FF33002447F83530F2E701F0ACFF1F
:10132000132DD7D901F062FF4FF0FF34092303607A
:10133000204603B0F0BD01F059FF132506460027F3
:1013400028463946ABBE05462046356003B0F0BDA1
:101350007800002008010020F8B50C4605463C2224
:101360000021204602F012F81C4B186808B1836B6C
:10137000D3B1132D1CD81A4850F83530013317D08B
:1013800063684FF4806200EBC5060C2543F40053FC
:10139000E262636028463146ABBE05466B1C0FD047
:1013A000002325611846F8BD01F066FF132DE2D930
:1013B00001F01CFF09224FF0FF3302601846F8BD10
:1013C00001F014FF13240646002720463946ABBE21
:1013D00004462B4634601846F8BD00BF7800002054
:1013E00008010020164B70B50446186808B1836BDD
:1013F000DBB1132C1DD8134850F83430013318D00A
:1014000000EBC405092420462946ABBE0446012C46
:1014100009D001F0EBFE132506460024284621469C
:10142000ABBE05463560204670BD01F025FF132C8C
:10143000E1D901F0DBFE002409230360204670BDE2
:10144000780000200801002008B500F011F8054BD5
:10145000054A9A60D3F8882042F47002C3F88820C5
:1014600008BD00BF00ED00E00000000800F028B853
:101470000F4A104BD2F888000F4940F4700070B446
:10148000C2F88800002418684FF000650B4E40F049
:10149000010018609C601868014019605E6019685E
:1014A00021F480211960DC60956070BC704700BF3A
:1014B00000ED00E000380240FFFFF6FE103000248F
:1014C00010B41B4CA36803F00C03042B25D0082B8D
:1014D0000CD0184B164A184892681849C2F30312E8
:1014E0005DF8044B825CD3400B60704763686168B1
:1014F0005B0201F03F0212D40E496368B1FBF2F1C6
:10150000C3F3881301FB03F2094B5B68C3F3014388
:1015100001335B00B2FBF3F3DCE7094BDAE7084881
:101520006368B0FBF2F1C3F3881301FB03F2EBE74E
:10153000003802400024F4007C4100080000002034
:1015400040787D0180B594B0BFF34F8FBFF36F8FAC
:1015500047490022C1F850224B6943F400334B61E4
:10156000BFF34F8FBFF36F8FC1F88420BFF34F8F4E
:10157000D1F88030C3F34E36C3F3C905720143F688
:10158000E0702B46104040EA8372013B384CC1F8B2
:1015900060225A1CF7D116F1FF36EFD2BFF34F8FFE
:1015A000636943F480336361BFF34F8FBFF36F8F81
:1015B000FEF7A2FF00242F4A4FF4803001944FF031
:1015C000010C116C4FF4800E2B4B022541F0805121
:1015D0004FF4D876192711640921126C02F0805259
:1015E0000192019A02941A6842F440421A601B6800
:1015F000099008A803F44043CDF820C0CDF83CE0A2
:101600000293029B139111960F26109712950E9537
:10161000FFF742F8FFF702F84FF4A0524FF480535F
:10162000072103A806920793049505940396FFF7F4
:1016300043FAFFF71FFB114BA3FB00308009FEF7B5
:10164000C9FF0420FEF7DEFFFFF73AFF0C4B0D4801
:10165000196801F0F7FE00F033F80B4801F064FF61
:1016600042F6E06000F00EFB084801F05DFFFEE787
:1016700000ED00E00038024000700040D34D6210E1
:10168000000000208C410008A4410008C44100086B
:1016900008B5FEF743FF074A13683BB906494FF404
:1016A0007A700B68106001330B6008BD013B13605A
:1016B00008BD00BF04000020A8010020704700BF43
:1016C000F0B5144A83B00025134BDFF858E04FF013
:1016D000FF360195116C114C41F00801104F204666
:1016E00011641B68126CAEFB031302F00802256143
:1016F000DB0CA56001923344019A65616360276049
:10170000E660FFF71BFB236820465D62FFF7B2FB34
:1017100003B0F0BD0038024000000020CC010020E2
:10172000000C004083DE1B4301462DE9F04F0127EA
:10173000002952D00020024686460EF1010E0B46CB
:1017400000241B6801340BB1BC42FAD10E463D4661
:1017500019464CB105B191B93346013C36685AB1CE
:1017600013601A46002CF5D1002D2ADD49B30B4633
:10177000013D0968002AF3D118461A46F2E7D6F867
:101780000490D1F804C0B9F90030B9F902A023F0EF
:10179000FF0BC3F30723BCF902804BEA0303C8EB3A
:1017A0000A08A9F80030BCF90030B8F1000F23F0A6
:1017B000FF09C3F3072349EA0303ACF80030D6DC82
:1017C000CAE70029B9D1BEF1010F116001D1BDE80E
:1017D000F08F01467F000029ACD10960FFDE00BF19
:1017E0002DE9F04FB0F904508DB082468E46002DA1
:1017F000D0F824B040F3BF8100200F46A9465B46D5
:101800000446024680468C46002F5FFA80FEC0F2F6
:101810007D81002B00F08A8159681D46B1F90210C4
:10182000B94205D107E06968B1F90210B94202D0A6
:101830002D68002DF7D1002600E00B4619681E60C8
:101840001E460029F9D1002D00F07081696801342D
:10185000B1F90010A4B2CE0703D5C1F340210A4468
:1018600092B2296821B10E682E601D680D60196062
:10187000002F01DB01373FB2013001B28945C3DCE3
:10188000C8EB8404CDF82CE09B46E64622440A9738
:1018900093B20993BEF1000F40F3F5800123524645
:1018A000CDF814B008935346DA469346283306938E
:1018B000059B002B00F0638100235746DA461E4645
:1018C00005930793079B4FF00008089A013307938D
:1018D0003B461B6808F101080BB19045F9D1DDF8D2
:1018E00020904546BB461F464C4655B104B1B7B99A
:1018F0005B46013DDBF800B076B133601E46002D3B
:10190000F4D1002C40F3B580002F00F0B2803B46AC
:10191000013C3F68002EF0D105931E46EFE7DBF84F
:1019200004807B68B8F90090039319F0800F5FD1B1
:10193000C9F3C30E19F007034EEA0E1E5DD0012B4A
:1019400059D1BAF838207146069800F02FFFBAF83E
:101950003C2003B20AB9AAF83C0098B2BAF8381091
:10196000049329F0FF0901F0B5F9049BAAF83800A7
:1019700003F07F0249F0800313439146A8F800303A
:10198000039BB3F9008018F0800F2ED1C8F3C30E6B
:1019900018F007034EEA0E1E4ED0012B4AD1BAF8BA
:1019A00038207146069800F001FFBAF83C2003B2D7
:1019B0000AB9AAF83C00BAF8381098B2049328F093
:1019C000FF0801F087F9049B48F08008039903F0B1
:1019D0007F03AAF838001A4643EA08030B80C2EBDB
:1019E0000909B9F1000F92DC82E708F07F02F6E7FF
:1019F00009F07F09C5E74B46AFE7BEF1220FBAF801
:101A000038C0BAF90230B8BF4FF0220EBAF9002040
:101A1000DAF81410DAF81800CDF800E0CDF804C0B8
:101A200001F0B8F8BAF83E2003B2002A95D1AAF81E
:101A30003E0092E74346BEE7BEF1220FBAF838C037
:101A4000BAF90230B8BF4FF0220EBAF90020DAF826
:101A50001410DAF81800CDF800E0CDF804C001F059
:101A600099F8BAF83E2003B2002AA4D1AAF83E00A1
:101A7000A1E7002F7FF426AF079BD3463760012BE9
:101A800072D1DDF814B0DBF8003000211D685A680F
:101A900068682C6858606A601C600A9B29608B42E9
:101AA00057DB19465C4602E02468002C4BD0636883
:101AB000B3F902308B42F7D10999DBF80430B3F95E
:101AC000000001F0EFFA24680146002CF5D16A68A5
:101AD000DBF8003009905C68584619686C605A6001
:101AE00029601D60FFF720FE0468054654B109997E
:101AF0006B68B3F9000001F0D5FA24680146002CA8
:101B0000F6D1099009980DB0BDE8F08F73B159680E
:101B10001D460978714505D18DE6696809787145DA
:101B20003FF489AE2D68002DF7D184E6196808F1DD
:101B3000010649681FFA86F891F9011001F00101C8
:101B40000A4492B294E6DBF800301C46002BB3D175
:101B5000C1E75C460B9902E02468002CF3D063686F
:101B60001B788B42F8D1A7E7089BDDF814A05B0037
:101B7000089353469DE600230A9109938AE69B4603
:101B8000CBF80030FFDE00BF2DE9F04F3C4F8A4616
:101B9000002448F28005A7FB003001F110030C601F
:101BA0009146000901F10802871E01EBC70898451C
:101BB000C1F8048008EB8700A8F8024008F104018E
:101BC0002AF8375003D908F10805A84246D82FB3A0
:101BD0001FFA89FB002602F1080501F1040EA84551
:101BE00019D9B3B2704583EA0B0C03F0070312D97D
:101BF0004FEACC0C1460CAF8002014460CF0780CA4
:101C0000516047F6FF724CEA03034A802A4643EAD2
:101C100003230B8071460136B742DCD1184B0220FA
:101C20000121A3FB0737C74004E0636859800130F6
:101C300001312C460302256881EA090203F4E063BE
:101C40003DB113438F42C3F30D03EED86268538056
:101C5000EDE75046BDE8F04FFFF766BD4FF6FF7E5B
:101C600047F6FF76CAF808401446CAF800201A461C
:101C7000CAF80C102946A8F804E0A8F80660A6E700
:101C8000CDCCCCCC2DE9F04F9BB00023044608AA64
:101C900007A90DF16600079300F028FE012000F06F
:101CA000F5FFADF82400022000F0F0FFADF82600AB
:101CB000032000F0EBFFADF828000520109400F0A1
:101CC000E5FF002800F0018100F00104099B0146B6
:101CD00011902546002B40F00181BDF92830002BE2
:101CE00000F00681C1F38002C1F340034FF4FA60B3
:101CF00000271344BF4EADF8647001F00202234484
:101D00000B9601F00407B0FBF3F00F900CB1012427
:101D10000C9632B104F1010E00FB04631FFA8EF43D
:101D20000D9317B100FB04640E94002D6BD1002AB3
:101D300074D1480700F18180109E002E00F087804A
:101D400000F0B2FD0024109DADF85C40ADF85E409F
:101D5000ADF86040ADF86240D5B1012109A8FFF7A8
:101D60003FFDBDF85C1000F0B5FF4FF0FF31ADF85E
:101D70005C0009A8FFF734FDBDF85C1000F0AAFF75
:101D8000ADF85C00002C00F035820134A542E4D1AE
:101D900000F092FD00F098FD00218146BDF924007D
:101DA00001F080F90146BDF9260001F07BF90146FA
:101DB000BDF9280001F076F90146BDF93C0001F0BB
:101DC00071F947F605330490984200F0FC8100F267
:101DD000978041F6F203984200F0E58144F6AF6344
:101DE000984240F015814EF2A45345F2086246F63F
:101DF0007921814803939B460292924601910F46B6
:101E000001F092FB94E0BDF924200C99FFF7BCFE91
:101E10001199129001F00202002A8AD0BDF9260021
:101E200013ABBDF924200D9942EA00420F9800F04F
:101E3000CDFC119948077FF57FAF0E9ABDF92410AC
:101E40000F9800F05BFD109E002E7FF479AF012308
:101E500003EB83035B00109300F026FD109DADF8AB
:101E60005C60ADF85E60ADF86060ADF86260DDB1F9
:101E70000024012109A8FFF7B3FCBDF85C1000F0B5
:101E800029FF4FF0FF31ADF85C0009A8FFF7A8FC6F
:101E9000BDF85C1000F01EFFADF85C00002C00F0F7
:101EA000A6810134A542E4D100F006FD00F00CFD4E
:101EB00000F014FD08B9109BCAE70A22109BB2FB80
:101EC000F0F000FB033310933AE70723012519468E
:101ED0001193099B2C46002B3FF4FFAE012B7FF49E
:101EE00001AFBDF92830002B7FF4FCAE43F215435F
:101EF0006622ADF82430ADF82630ADF82820F1E6A2
:101F000048F60223984200F03E814EF6F5139842BF
:101F10007ED148F63A6341F6D7724EF214713748D3
:101F200003939B460292924601910F4601F0FCFA00
:101F3000DFF8D880D8F80060002E6DD00024CDF8EE
:101F40001490B946254618E036F8062C5A454DD06F
:101F5000039B29462A4801F075FA36F8043C013300
:101F60001BB226F8043C01351C44D8F80030ADB251
:101F7000A6B29D4234B280F0EC802E011AAB002252
:101F8000771903EB870757F8243C27F8042CD90767
:101F90000DD537F80A2C4A4509D0019B2946194826
:101FA00001F050FA37F8043C013327F8043C1AAB2F
:101FB000771903EB870757F8243C9A070FD537F8B2
:101FC000082C52450BD0029B29460F4801F03AFAE3
:101FD00037F8042C57F8243C013227F8042C2E44FF
:101FE00013F0040F1AAB03EB8606ADD136F9043CAF
:101FF000B9E700BF08020020304200086042000834
:102000001C430008B8420008E84200081000002005
:102010004FF6FF76DFF8F48101F0E6F80F993518F6
:10202000764801F00FFA49467548ADB201F00AFA58
:10203000484600F053FC0146724801F003FA484656
:1020400000F04CFC002840F08C80484600F046FC34
:10205000092840F28180109B2DB2D8F800106A4800
:1020600001FB03F1694C01F0EDF96949694801F0A0
:10207000E9F96949694801F0E5F90499684801F00E
:10208000E1F9119A2368D00715D5002B00F0AB8039
:10209000002404EB04131AAA2146013402EB830343
:1020A0006048A4B233F80A2C01F0CCF9D8F800301B
:1020B0009C42EED3119A910714D5002B3AD00024FC
:1020C00004EB04131AAA2146013402EB8303564899
:1020D000A4B233F8082C01F0B5F9D8F800309C42CE
:1020E000EED3119A520712D523B3002404EB041344
:1020F0001AAA2146013402EB83034C48A4B233F8F8
:10210000062C01F09FF9D8F800309C42EED38BB139
:10211000002404EB04131AAA2146013402EB8303C2
:102120004348A4B233F80C2C01F08CF9D8F80030F5
:102130009C42EED3002D22D0CCBF3E483E4801F059
:10214000F3F90DF1660000F0D5FB00201BB0BDE8EF
:10215000F08FDDF814905FE73848013501F0E4F9BD
:1021600079E7109C4846D8F8003003FB04F400F0EF
:10217000B5FBB4FBF0F1324801F064F965E7314892
:1021800001F0D2F9DDE745F647634BF652624DF2B6
:10219000B0412D4803939B460292924601910F460F
:1021A00001F0C2F9C4E648F6845340F247724EF299
:1021B000C131264803939B460292924601910F46F5
:1021C00001F0B2F9B4E643F6BF1341F299124FF4AD
:1021D0004D511F4803939B460292924601910F4630
:1021E00001F0A2F9A4E612F00203A3D17AE7ADF858
:1021F0005E0056E6ADF85E00C7E500BF4C43000840
:10220000644300087C430008EC43000810000020F1
:10221000044400084844000860440008684400087A
:10222000804400089C440008B8440008D4440008D6
:10223000F04400085845000868450008AC43000811
:10224000944300080C450008D84100088C4200085F
:10225000044200082DE9F04F8FB0DFF84CA583460B
:10226000BDF960E008910A924EEA0A0A029300283A
:1022700000F0858244004FF00008431E1FFA8EF9DB
:1022800005949446CDF8048014460993CDF82CA00B
:102290000C92CDF834E086E05B4634F81820012B30
:1022A0004A4424F8182000F08F80BCF80220022B4A
:1022B0004A44ACF8022000F08780BCF80420042BCC
:1022C0004A44ACF8042040F08180BCF806209A46CD
:1022D0004A44ACF806209B455DD0C3EB0B02114687
:1022E0000492099A0439D21A8908022A01F10101DB
:1022F0004FEA8100039033D943440022079404EB52
:1023000043031446CDF818C0A3F1080E5EF8082F59
:1023100000200134DEF8045009EB020C064609EBFC
:10232000124209EB05071FFA8CFC09EB15458C429C
:10233000BFB26CF30F0092B267F30F0662F31F4057
:1023400065F31F4683E8410003F10803DED3039AD7
:10235000DDF818C013469244049A079C93421AD0A1
:1023600008EB0A020AF1010334F812109B454944B4
:1023700024F812100FD943440AF1020234F8131062
:102380009345494424F8131005D9424434F81230D7
:102390004B4424F81230019BD844059A01339444ED
:1023A0009B45019315D04FEA5C035B4203F00303A6
:1023B0005B4528BF5B46BBF1040F7FF66DAF002B7A
:1023C0007FF46BAF9A4688E79A4684E74FF0030A9A
:1023D00081E74FEA8B031446DDF82CA000200C9E09
:1023E0001F46DDF834E0089D019331192A4636F97D
:1023F000023B03FB0EF38E4242F8043BF7D101305F
:102400003D448345F1D14FF0000C089EDDF8048077
:1024100035466146624663460F4608EB060E56F89F
:10242000041B9BB20A4403F10A00B942C8BF01333E
:102430000F46524500B21BB2C4BF00220346B64548
:10244000EDD10CF1010C7646E345E5D118460021AB
:1024500000F028FE089B019A8046CDF80CA003EB03
:10246000020C029BDDF828E01F199A46534671467C
:10247000002233F9020B31F9026B9F4206FB002266
:10248000F7D145F8042B6545A644EFD14FF0000C79
:10249000089BDDF80CA0654603931E4661462B465B
:1024A00001982F4600EB060E56F8045B9BB22944B8
:1024B00003F10A02BD42C8BF01332F46514512B293
:1024C0001BB2C4BF002113467645EDD10CF1010CBF
:1024D000E345E6D11846414600F0E4FD029BCDF805
:1024E00014A003EB04080023CDF81890DDF828C0F1
:1024F0009A46DDF80C900490029E04EB0C07CE4641
:1025000000236246194632F9025BF05E2344BA4268
:1025100005FB0011F7D102364EF8041B4645EFD1FA
:102520000AF1010A019B9446D3459944E4D14FF046
:10253000000C9E46089B6546DDF814A003931E46DA
:10254000DDF8189061462B4628460EEB06070A4632
:1025500056F8045B9BB22A4403F10A018542C8BFC6
:1025600001332846524509B21BB2C4BF00220B46B4
:10257000BE42EDD10CF1010C1146E345E4D1184601
:10258000049900F08FFD029BCDF814A003EB040822
:102590000023CDF81890DDF828C09A46DDF80C909D
:1025A0000490029E04EB0C07CE46002261461046C2
:1025B000B55E224431F9023B03FB05F38F42C3F3BE
:1025C0008305C3F3461303FB0500F1D102364EF831
:1025D000040B4645E9D10AF1010A019BBC46D345EB
:1025E0009944DED14FF0000C9E46DDF814A06546FC
:1025F000DDF81890089E61462B4628460EEB06072C
:102600000A4656F8045B9BB22A4403F10A0185424C
:10261000C8BF01332846524509B21BB2C4BF0022CD
:102620000B46BE42EDD10CF1010C1146E345E4D15D
:102630001846049900F036FD4FF0000A0A9D0BF190
:10264000FF3308902E460793CDF804A0059482E04E
:102650005B4635F81A20012BC9EB020225F81A2037
:1026600000F089807288022BC9EB0202728000F0B0
:102670008280B288042BC9EB0202B2807DD1F1883E
:102680001A46C9EB0101F1809B455CD0C3EB0B01FD
:102690000846049107990438C91A8008022900F1F4
:1026A000010002904FEA8000039030D95344002487
:1026B000069605EB4303A3F1080858F8081F00200D
:1026C0000134D8F80460C9EB010CC9EB114107468D
:1026D000C9EB060E1FFA8CFC89B21FFA8EFE6CF352
:1026E0000F00C9EB164661F31F406EF30F07029906
:1026F00066F31F47A14283E8810003F10803DCD899
:102700000399069E0B460A4404998B421BD00AEBA0
:102710000201531C35F811009B45C9EB000025F858
:10272000110010D95344023235F813109345C9EB08
:10273000010125F8131006D9524435F81230C9EBBF
:10274000030325F81230019BDA44059A013316443D
:102750009B45019323D073085B4203F003035B4561
:1027600028BF5B46BBF1040F7FF672AF002B7FF4EE
:1027700070AF1A468AE71A4686E7032284E70146C5
:1027800000F090FC0146584600F08CFC014658468B
:1027900000F088FC0146584600F084FC0890BDF922
:1027A00020000FB0BDE8F08F00F0FFFF10B582B041
:1027B0001446009183684268C1680068FFF74AFDCB
:1027C000214602B0BDE8104000F06CBC2DE9F04F8E
:1027D000002A08BF0122002853D00646002000E04E
:1027E0002046441C04FB04F5B6EBC50FF8D801F1F4
:1027F000FF3900FB00F8824629F003094FEA480838
:1028000009F1040909EB080C60B34FF0000E012434
:1028100000FB0EF6002576000CEB06074E440BE09D
:1028200001EB020B85421FFA8BFB594427F802BBD0
:10283000C9B226F8021B11D202FB04FB184AA1B24E
:1028400001350BEA02020134002AE9DA013ADFF825
:1028500054B042EA0B0B0BF10102E1E70EF1010E5D
:102860008645D5D30CEB0802C3F80490C3F808C022
:10287000013AC3F800A022F003020432DA60BDE896
:10288000F08F01F1FF3C4FF0FF3A4FF002082CF0BF
:10289000030C50460CF104090CF1060CB5E700BF1F
:1028A000FFFF00800000FFFF08B5FDF73FFE014B72
:1028B000186008BDBC01002008B5FDF737FE014BCC
:1028C000186008BDB8010020024A034B10681B685D
:1028D000C01A7047B8010020BC010020024BA3FBC6
:1028E00000308009704700BFD34D62100123037090
:1028F000704700BF00230370704700BF0023013101
:102900004FF02C0C89B22DE9F04F96461C461A4622
:10291000471EDFF898A0A618DFF89490DFF894809F
:10292000751CAF4221D952B174441A4413F801BB4B
:10293000934204F801BBF9D12C460EF806C001F011
:1029400007030AB2033B042B1FD8DFE803F0181873
:1029500003032500C2F3C103082259F82330A61847
:102960000131751C89B2AF42DDD884421AD2021BF4
:1029700000210EEB0400BDE8F04F00F007BDC2F3EC
:10298000C103082258F82330E9E7C2F3C103064D1A
:10299000042255F82330E2E7C2F3C10308225AF8B3
:1029A0002330DCE7BDE8F08FE4450008C4460008AA
:1029B000B4460008F4450008036830B41C78002CC5
:1029C00000F0D3802C2C00F0D380A4F13002092A2F
:1029D00017D80C685A1C01340C605B7863B12C2B3F
:1029E00039D02E2BA3F1300400F0A180092C43D85C
:1029F00012F8013F002BF2D10423026030BC1846CC
:102A000070472B2C0FD02D2C0DD02E2C3DD04D6887
:102A10005A1C0C6801231D441C4481E830000260EC
:102A2000184630BC70470C685A1C01340C605C7846
:102A3000002C00F093802C2C00F09280A4F1300246
:102A4000092A0ED88C689A1C01348C609B78002B64
:102A5000D2D02C2BC5D10423013230BC02601846E1
:102A600070472E2C72D08C689A1C01231C448C60F9
:102A70000260184630BC70470C69012301321C44C7
:102A80000C610260184630BC70470C685A1C013457
:102A90000C605B78FBB12C2B6DD003F0DF04303B76
:102AA000452C12D14B69541C01334B615378002BD8
:102AB00063D02C2B6AD02B2B0FD02D2B0DD0CC68B4
:102AC000012302321C44CC60A9E7092B38D812F844
:102AD000013F002BDFD10523A1E7CB68941C013314
:102AE000CB609378002B4BD02C2B4CD0303B092B58
:102AF00011D88B69D41C01338B61D37843B12C2B53
:102B000030D0303B092B0CD814F8013F002BF6D104
:102B10002246072383E78C69012303321C448C611E
:102B20007DE74D680123621C1D444D6077E70B690A
:102B3000541C01330B6153782246002BABD1CAE7FA
:102B40004C69012301321C444C6168E78C689A1C73
:102B500001348C609B78002B9DD1BCE702235EE79B
:102B6000022379E72246072376E71A46234656E7EB
:102B70001A46002370E705236EE7224603234EE73B
:102B8000224606234BE72246062365E72246032317
:102B900062E700BF2DE9F04792B00C468146002164
:102BA00092460AA8202298460194BDF96860BDF8B3
:102BB0006C7000F0EBFB2022002102A800F0E6FB85
:102BC0002278002A5AD001AD0AA92846FFF7F4FE60
:102BD00012AA019B02EB80001A7850F8403C0133A6
:102BE00040F8403C002AEFD1A144019422784C45A2
:102BF00041D2234600E01A782C2A82EA0A0101D049
:102C00001970019B334499450193F4D823780194BA
:102C1000002B39D00AA92846FFF7CEFE12AA019B45
:102C200002EB80001A7850F8403C013340F8403CF9
:102C3000002AEFD14C4501940BD221460B782C2B66
:102C400083EA080201D00A70019931444945019193
:102C5000F4D309AC2646394655F8040F00F0DCF8E9
:102C6000014654F8040F00F0D7F8B5420746F2D1F8
:102C700012B0BDE8F087002ACCD1EAE7A144019464
:102C800001AD4C45B5D3E4E70194D6E701380428FB
:102C900013D8DFE800F006090C0F0300084B186892
:102CA0007047084B18687047074B18687047074B08
:102CB00018687047064B186870470020704700BFBF
:102CC000B0010020AC010020B40100200C00002065
:102CD000080000204AF2010381EA0002490812F0CC
:102CE000010F81EA0302F0B518BF1146C0F3460494
:102CF000000A67084C40490814F0010F4FEA5706D4
:102D000081EA03024FEA500E4FEA560518BF1146FA
:102D10006C084F4049084FEA540C81EA030217F04F
:102D2000010F4FEA5E0718BF11464E40490816F0E2
:102D3000010F81EA03024FEA570618BF11464D40C2
:102D4000490815F0010F81EA03024FEA560518BF42
:102D500011464C40490814F0010F81EA03024FEA82
:102D6000550418BF114681EA0C02490812F0010F00
:102D700081EA030208BF0A4682EA5C0C51081CF093
:102D8000010F81EA030208BF0A46610882EA000CCB
:102D900050081CF0010F80EA030218BF10468EEAAB
:102DA000000E40081EF0010F80EA030218BF104613
:102DB0004740400817F0010F80EA030218BF104691
:102DC0004640400816F0010F80EA030218BF104683
:102DD0004540400815F0010F80EA030218BF104675
:102DE0004440400814F0010F80EA030218BF104667
:102DF00080EA0102400812F0010F80EA030218BFC6
:102E0000104680EA5101400811F0010F83EA0003E7
:102E100018BF1846F0BD00BF4AF2010381EA000264
:102E20004908C0F3072C12F0010F81EA0302F0B544
:102E300018BF1146C0F346044FEA5C0E81EA040253
:102E40004908650812F0010F81EA03024FEA5504B0
:102E500018BF11464FEA5E0766084D404908000C4E
:102E600081EA030215F0010F4FEA560518BF11461B
:102E70004C40490814F0010F81EA03024FEA55045F
:102E800018BF11464E40490816F0010F81EA0302AF
:102E90004FEA570618BF11464D40490815F0010F7B
:102EA00081EA03024FEA560518BF114681EA04027F
:102EB000490812F0010F81EA030218BF114681EAA6
:102EC0005404490814F0010F4FEA550481EA030243
:102ED00018BF114681EA0C0C49081CF0010F81EA69
:102EE00003024FEA540C18BF114681EA0E0E49083E
:102EF0001EF0010F81EA0302C0F3460E18BF11460F
:102F00004F40490817F0010F81EA03024FEA5E07BC
:102F100018BF11464E40490816F0010F81EA03021E
:102F20004FEA570618BF11464D40490815F0010FEA
:102F300081EA03024FEA560518BF11464C40490882
:102F400014F0010F81EA03024FEA550418BF11463D
:102F500081EA0C02490812F0010F81EA030218BF4E
:102F6000114681EA5C0C49081CF0010F4FEA540C31
:102F700081EA030218BF114681EA00024908000AEB
:102F800012F0010F81EA030218BF114681EA0E0E0A
:102F900049081EF0010F81EA03024FEA500E18BFE4
:102FA00011464F40490817F0010F81EA03024FEA2A
:102FB0005E0718BF11464E40490816F0010F81EA1E
:102FC00003024FEA570618BF11464D40490815F055
:102FD000010F81EA03024FEA560518BF11464C4023
:102FE000490814F0010F81EA03024FEA550418BFA3
:102FF000114681EA0C02490812F0010F81EA03022E
:1030000008BF0A4682EA5C0C51081CF0010F81EAF5
:10301000030208BF0A46610880EA020C50081CF04F
:10302000010F80EA030218BF10468EEA000E400826
:103030001EF0010F80EA030218BF10464740400807
:1030400017F0010F80EA030218BF104646404008FF
:1030500016F0010F80EA030218BF104645404008F1
:1030600015F0010F80EA030218BF104644404008E3
:1030700014F0010F80EA030218BF104680EA010233
:10308000400812F0010F80EA030218BF104680EAE0
:103090005101400811F0010F83EA000318BF1846E0
:1030A000F0BD00BF4AF2010381EA0002490812F0B4
:1030B000010F81EA0302F0B518BF1146C0F34604C0
:1030C000C0F3072067084C40490814F0010F4FEA8D
:1030D000570681EA03024FEA500E4FEA560518BF21
:1030E00011466C084F4049084FEA540C81EA03022C
:1030F00017F0010F4FEA5E0718BF11464E4049080E
:1031000016F0010F81EA03024FEA570618BF114675
:103110004D40490815F0010F81EA03024FEA5605B8
:1031200018BF11464C40490814F0010F81EA030210
:103130004FEA550418BF114681EA0C02490812F003
:10314000010F81EA030208BF0A4682EA5C0C5108BB
:103150001CF0010F81EA030208BF0A46610882EAF7
:10316000000C50081CF0010F80EA030218BF104643
:103170008EEA000E40081EF0010F80EA030218BF1D
:1031800010464740400817F0010F80EA030218BFBD
:1031900010464640400816F0010F80EA030218BFAF
:1031A00010464540400815F0010F80EA030218BFA1
:1031B00010464440400814F0010F80EA030218BF93
:1031C000104680EA0102400812F0010F80EA030273
:1031D00018BF104680EA5101400811F0010F83EA40
:1031E000000318BF1846F0BD00207047014B186857
:1031F000704700BF78000020014900F0A9B800BF67
:10320000CD380008002310B5044603604360836096
:1032100081814366C281036143618361194608224B
:103220005C3000F0B3F8054B6362054BA362054BBD
:10323000E362054B2462236310BD00BF59350008CB
:103240007B350008B3350008D735000870B5682312
:103250004D1E5D430E4605F1740100F09FF80446D3
:1032600040B1002180E842000C30A06005F1680206
:1032700000F08CF8204670BD836910B5044633BB5E
:103280008364C3640365124B124A1B6882629842CE
:1032900004BF0123836100F01FF86060204600F046
:1032A0001BF8A060204600F017F80022E06004211F
:1032B0006068FFF7A7FF01220921A068FFF7A2FFBE
:1032C00002221221E068FFF79DFF0123A36110BDD8
:1032D0003C480008F9310008F8B51C4B1E68B3697A
:1032E000074613B93046FFF7C7FF4836B46873681E
:1032F000013B04D4B4F90C507DB16834F8E733686D
:103300000BB13668F2E704213846FFF79FFF3060C3
:103310000028F6D10C233B60F8BD4FF6FF73E38124
:103320000123A38165662560A560656025616561EF
:10333000A5610822294604F15C0000F027F86563C6
:10334000A563A564E5642046F8BD00BF3C480008BD
:103350002DE9F8438046894600F14804002694B1DF
:10336000A5686768013F0CD4AB89012B07D9B5F973
:103370000E30013303D029464046C847064368351E
:10338000F0E72468EBE73046BDE8F88302440346E3
:10339000934202D003F8011BFAE7704770B5CD1CC9
:1033A00025F0030508350C2D38BF0C25002D0646E9
:1033B00003DA0C233360002070BDA942F9D81F4BFB
:1033C0001C681A462146A1B10B685B1B0ED40B2B5F
:1033D00003D90B60CC18CD501EE08C420DBF636842
:1033E0004B686360136018BF0C4615E00C464968D3
:1033F000E9E7134C23681BB9304600F09DF82060C4
:103400002946304600F098F8431CD2D0C41C24F062
:103410000304A0420AD1256004F10B00231D20F013
:103420000700C31A09D05A42E25070BD211A304633
:1034300000F082F80130EED1BBE770BDC40100207E
:10344000C00100200FB40A4B13B51C6824B1A36956
:1034500013B92046FFF710FF05AB049AA16801934A
:10346000204600F03FFB02B0BDE8104004B07047BA
:103470007800002070B50E46054618B183690BB977
:10348000FFF7FAFEAB69AC6813B92846FFF7F4FE04
:10349000224B9C4201D16C6808E0214B9C4201D137
:1034A000AC6803E01F4B9C4208BFEC68A3891B0774
:1034B00001D523693BB92146284600F001F910B136
:1034C0004FF0FF3070BD013EA36816F8011F013BAD
:1034D000A36091B1002B04DAA269934206DB0A29AA
:1034E00004D023685A1C22601970EDE72246284652
:1034F00000F080F80130E7D1E2E7002B08DA22463D
:103500000A21284600F076F80130D9D00A2070BD93
:1035100023680A205A1C2260187070BDD847000822
:10352000F847000818480008024B01461868FFF7E2
:10353000A1BF00BF7800002038B5064C0023054627
:1035400008462360FDF7A6FC431C02D1236803B1A3
:103550002B6038BDC801002010B50C46B1F90E1023
:1035600000F078FD0028ABBF636DA3891B1823F41E
:103570008053ACBF6365A38110BD2DE9F0411F46A8
:103580008B89DB0505460C46164605D5022300222D
:10359000B1F90E1000F0C4F9A389B4F90E1023F4A8
:1035A0008053A38132463B462846BDE8F04100F0F7
:1035B00075B810B50C46B1F90E1000F0B1F9431C06
:1035C000A38915BF606523F4805343F48053A3811E
:1035D00018BFA38110BDB1F90E1000F0DFB810F8CC
:1035E000012B11F8013B012A28BF9A42F7D0D01ACB
:1035F00070470000F8B50F461446064618B18369B7
:103600000BB9FFF739FE224B9C4201D1746808E0E8
:10361000204B9C4201D1B46803E01F4B9C4208BF81
:10362000F468A369A360A3891A0709D523693BB18C
:1036300023682069181A63699842FDB20FDB08E01D
:103640002146304600F03CF80028F1D04FF0FF3022
:10365000F8BD2146304600F039F90028F6D1A368BC
:10366000013BA36023685A1C22601F706269431CDF
:10367000934204D0A389DB0707D50A2D05D1214643
:10368000304600F023F90028E0D12846F8BD00BFFD
:10369000D8470008F84700081848000838B5074C14
:1036A000054608461146002222601A46FDF7A8FD8D
:1036B000431C02D1236803B12B6038BDC801002030
:1036C000324B70B51D6806460C4625B1AB6913B97F
:1036D0002846FFF7D1FD2E4B9C4201D16C6808E0D3
:1036E0002C4B9C4201D1AC6803E02B4B9C4208BFA1
:1036F000EC68B4F90C309AB215071DD4D00602D488
:10370000092232603AE0510712D5616B41B104F1F0
:103710004403994202D0304600F074F900236363F9
:10372000A38923F02403A38100236360236923601A
:10373000A38943F00803A38123694BB9A38903F448
:103740002073B3F5007F03D02146304600F01EF908
:10375000A28912F0010305D00023A36063695B42D4
:10376000A36103E0920758BF6369A36023695BB953
:10377000B4F90C3003F0800080B230B143F0400364
:10378000A3814FF0FF3070BD002070BD7800002095
:10379000D8470008F84700081848000838B5064C14
:1037A0000023054608462360FDF78AFD431C02D12D
:1037B000236803B12B6038BDC80100208A892DE938
:1037C000F041054610070C4659D44B68002B02DC2B
:1037D0000B6C002B17DDE66AAEB102F480520023B9
:1037E00092B22F682B600AB1606D15E0216A012347
:1037F0002846B047411C0FD12B686BB11D2B01D05F
:10380000162B03D12F600020BDE8F081A38943F07F
:103810004003A381BDE8F081A3895A0705D56368F9
:10382000C01A636B0BB1236CC01A00230246E66A10
:10383000216A2846B047431CA38906D129681D295F
:103840003AD8214ACA40D60736D500226260D90448
:103850002269226004D5421C01D12B6803B960653E
:10386000616B2F600029CED004F14403994202D04D
:10387000284600F0C7F800206063BDE8F0810F69BA
:10388000002FC0D093070E6808BF4B690F6018BFA8
:103890000023C7EB06088B6002E00744C0EB080872
:1038A000B8F1000FAFDD43463A46216AA66A2846C2
:1038B000B0470028F1DCA38943F04003A3814FF017
:1038C000FF30BDE8F08100BF0100402038B50B6932
:1038D00005460C46DBB118B183690BB9FFF7CCFC88
:1038E0000C4B9C4201D16C6808E00B4B9C4201D10F
:1038F000AC6803E0094B9C4208BFEC68B4F90C309B
:103900002BB121462846BDE83840FFF757BF0020BD
:1039100038BD00BFD8470008F8470008184800081D
:1039200038B5074C054608461146002222601A4663
:10393000FDF7ECFB431C02D1236803B12B6038BDBB
:10394000C801002070B50E46B1F90E10002990B0E4
:1039500014461D4606DA00232B60B3891A060ED5DD
:1039600040230EE001AA00F087FB0028F3DB029A57
:1039700002F47042A2F500535A425A412A604FF4B1
:1039800080630020236010B070BD00008B8973B588
:103990009E0705460C4610D401AB6A46FFF7D2FFDE
:1039A000009906462846FFF7F9FC68B9B4F90C30CF
:1039B0009A0522D443F00203A38104F14703236054
:1039C00023610123636118E00D4BAB62A389206082
:1039D00043F08003A381009B6361019B20614BB195
:1039E000B4F90E10284600F059FB18B1A38943F032
:1039F0000103A381A0893043A08102B070BD00BF44
:103A0000F931000830B500293ED051F8042C0B1FC5
:103A10001E49002AB8BF9B180A680C4612B95A60A2
:103A20000B6030BD9A420ED919685818824204BF03
:103A3000106852685A6004BF09181960236030BDCD
:103A4000994203D80A4651680029F9D1146815191A
:103A50009D420AD11B682344D0188142136013D1C0
:103A60000868034413604B680DE002D90C2303601F
:103A700030BD18681C18A14204BF0C684968596021
:103A800004BF00191860536030BD00BFC40100209E
:103A90009368013B002B10B4936009DA9469A34248
:103AA00002DBCBB20A2B03D15DF8044BFFF7A2BDBA
:103AB0001368581C10601970C8B25DF8044B704749
:103AC000F8B506460F461446D518AC4208D03A461B
:103AD00014F8011B3046FFF7DBFF431CF5D100E073
:103AE0000020F8BD2DE9F04F9DB00C46174603931A
:103AF000064618B183690BB9FFF7BEFB7F4B9C42AA
:103B000001D1746808E07E4B9C4201D1B46803E0A7
:103B10007C4B9C4208BFF468A38918070CD5236925
:103B200053B10023099320238DF8293030238DF8D9
:103B30002A30DFF8D4B144E021463046FFF7C0FD1B
:103B40000028EED04FF0FF30D5E0039A111D126827
:103B50000391002A80F28C80524243F002000792C7
:103B6000049098F800302E2B00F08480032298F8FF
:103B70000010654800F0A4FA48B14023CBEB0000E8
:103B800003FA00F0049B1843049008F1010898F828
:103B900000105E488DF82810062208F1010700F099
:103BA0008FFA002800F09580594B002B40F0888058
:103BB000039B073323F0070308330393099B534404
:103BC0000993B846454615F8013B1BB9B8EB070900
:103BD0000FD003E0252BF9D0A846F3E74B463A4631
:103BE00021463046FFF76CFF01307FD0099B4B44E4
:103BF000099398F80030002B78D000234FF0FF3263
:103C000004930793059206938DF853301A93012776
:103C1000052229783F4800F053FA05F10108049B7A
:103C200038B13C4A801A07FA00F018430490454620
:103C3000EEE7D90644BF20228DF853201A0744BF6F
:103C40002B228DF853202A782A2A3FF47EAF079A38
:103C500000210A20A846013598F80030303B092B96
:103C600003D800FB02320121F4E700293FF479AFC9
:103C7000079276E798F801302A2B0BD1039B1A1D87
:103C80001B680392002BB8BF4FF0FF3308F1020806
:103C900005936BE70023059308F1010019460A25F7
:103CA0008046013098F80020303A092A03D805FBF5
:103CB00001210123F4E7002B3FF458AF059155E7AC
:103CC00003AB00932246144B04A93046AFF30080A7
:103CD00007E003AB009322460F4B04A9304600F0E7
:103CE00093F8B0F1FF3F82467FF468AFA3895B068B
:103CF0003FF528AF09981DB0BDE8F08FD847000800
:103D0000F847000818480008464800084A480008D4
:103D10000000000040480008C13A00082DE9F047C3
:103D200091461F460A698B68DDF820809342B8BF30
:103D30001346C9F8003091F8432006460C4612B1EC
:103D40000133C9F800302368990642BFD9F8003022
:103D50000233C9F80030256815F0060510D104F1CA
:103D6000190A07E00123524639463046C047013060
:103D70001AD00135E368D9F800209B1A9D42F1DB87
:103D800094F843302268003318BF012392060FD500
:103D9000E1185A1C302081F84300224494F8451061
:103DA00082F84310023303E04FF0FF30BDE8F087A4
:103DB00004F1430239463046C0470130F4D022684E
:103DC000D9F80050E36802F00602042A08BF5D1B20
:103DD0002269A3680CBF25EAE57500259342C4BF9C
:103DE0009B1AED184FF000091A344D4509D00123F4
:103DF000224639463046C0470130D5D009F1010985
:103E0000F3E70020BDE8F0872DE9F04317460A7E6E
:103E100085B06E2A984606460C460C9B01F1430E6F
:103E200000F0AE8011D8632A22D009D8002A00F011
:103E3000BB80582A40F0CA8081F84520834955E06C
:103E4000642A1ED0692A1CD0C0E0732A00F0B0801A
:103E500009D86F2A2ED0702A40F0B8800A6842F044
:103E600020020A603EE0752A24D0782A3AD0ADE0DC
:103E70001A6801F14205111D1960136884F8423077
:103E8000A8E021681A6811F0800F02D0111D196096
:103E900008E011F0400F02F10401196002D0B2F9FC
:103EA000003000E01368002B3CDA2D225B4284F8DE
:103EB000432037E021681A6811F0800F02D0111DED
:103EC000196007E011F0400F02F10401196001D000
:103ED000138800E01368227E5C496F2A14BF0A220F
:103EE00008221BE078225A4984F845202268186885
:103EF00012F0800F00F104051D6003D1550601D5B5
:103F0000038800E00368D00744BF42F0200222602B
:103F10001BB9226822F0200222601022002084F8BF
:103F2000430001E049490A226568A560002D08DBCD
:103F3000206820F0040020602BB9002D7DD175464B
:103F40000CE0002B79D07546B3FBF2F002FB103386
:103F5000CB5C05F8013D03460028F5D1082A0BD1BA
:103F60002368DA0708D5236962689A42DEBF3023E6
:103F700005F8013C05F1FF35C5EB0E0323612EE08A
:103F800008681A68496910F0800F03D0101D186086
:103F9000136808E010F0400F02F104001860136885
:103FA00001D0198000E0196000232361754616E0F6
:103FB0001A68111D1960156862680021284600F012
:103FC0007FF808B1401B6060636804E004F14205BB
:103FD00084F8422001232361002384F84330CDF884
:103FE00000803B4603AA21463046FFF797FE01308A
:103FF00002D14FF0FF3026E023692A463946304689
:10400000C0470130F5D023689B0710D5002504F187
:10401000190907E001234A4639463046C0470130B6
:10402000E7D00135E368039A9B1A9D42F2DBE06812
:10403000039B9842B8BF184605E00B7884F84230DD
:1040400004F142058AE705B0BDE8F0835148000855
:104050006248000838B5074C05460846114600225C
:1040600022601A46FDF708F8431C02D1236803B109
:104070002B6038BDC801002038B5074C0023054629
:10408000084611462360FDF767F9431C02D12368F7
:1040900003B12B6038BD00BFC801002038B5064C05
:1040A0000023054608462360FDF79CF9431C02D116
:1040B000236803B12B6038BDC80100200000000058
:1040C00001F0FF01102A2BDB10F0070F08D010F8C9
:1040D000013B013A8B422DD010F0070F42B3F6D1CD
:1040E000F0B441EA012141EA014122F007047FF0E6
:1040F00000070023F0E80256083C85EA010586EA3D
:10410000010685FA47F5A3FA87F586FA47F6A5FA78
:1041100087F68EB9EED1F0BC01F0FF0102F0070284
:1041200032B110F8013B013A83EA010313B1F8D12F
:104130000020704701387047002D06BF3546033810
:10414000073815F0010F07D1013015F4807F02BF49
:10415000013015F4C03F0130F0BC0138704700BF9A
:10416000000000000102030401020304060708091D
:104170003A7474002F746D7000000000000000009D
:104180000000000001020304060708095379737454
:10419000656D20636C6F636B3A20256C7520487ADF
:1041A0000A00000052756E2074686520636F7265A6
:1041B0006D61726B20312E302062656E63686D61B7
:1041C000726B00000A42656E63686D61726B2064F9
:1041D0006F6E652E00000000366B20706572666F92
:1041E000726D616E63652072756E20706172616DB3
:1041F000657465727320666F7220636F72656D619E
:10420000726B2E00366B2076616C69646174696F25
:104210006E2072756E20706172616D657465727367
:1042200020666F7220636F72656D61726B2E000085
:1042300050726F66696C652067656E65726174693E
:104240006F6E2072756E20706172616D657465723B
:104250007320666F7220636F72656D61726B2E00E2
:10426000324B20706572666F726D616E636520728D
:10427000756E20706172616D657465727320666F12
:104280007220636F72656D61726B2E00324B207607
:10429000616C69646174696F6E2072756E20706103
:1042A00072616D657465727320666F7220636F72E0
:1042B000656D61726B2E00005B25755D4552524F36
:1042C0005221206C6973742063726320307825302A
:1042D0003478202D2073686F756C642062652030FF
:1042E00078253034780A00005B25755D4552524FC1
:1042F0005221206D61747269782063726320307876
:1043000025303478202D2073686F756C64206265C9
:10431000203078253034780A000000005B25755D78
:104320004552524F52212073746174652063726349
:1043300020307825303478202D2073686F756C64B8
:10434000206265203078253034780A00436F72652A
:104350004D61726B2053697A65202020203A202518
:10436000750A0000546F74616C207469636B73206C
:1043700020202020203A2025750A0000546F746107
:104380006C2074696D65202873656373293A202554
:10439000640A0000497465726174696F6E732F530B
:1043A00065632020203A2025640A00004552524FC0
:1043B0005221204D7573742065786563757465208E
:1043C000666F72206174206C6561737420313020D7
:1043D0007365637320666F7220612076616C696417
:1043E00020726573756C7421000000004974657259
:1043F0006174696F6E73202020202020203A2025D0
:10440000750A0000474343352E332E3120323031B8
:104410003630333037202872656C6561736529202A
:104420005B41524D2F656D6265646465642D352D69
:104430006272616E6368207265766973696F6E205F
:104440003233343538395D00436F6D70696C657295
:104450002076657273696F6E203A2025730A00001A
:10446000535441434B0000004D656D6F7279206CD1
:104470006F636174696F6E20203A2025730A000013
:104480007365656463726320202020202020202033
:10449000203A203078253034780A00005B25645DAE
:1044A0006372636C697374202020202020203A20DE
:1044B0003078253034780A005B25645D6372636D63
:1044C000617472697820202020203A2030782530CD
:1044D00034780A005B25645D63726373746174658C
:1044E0002020202020203A203078253034780A00FF
:1044F0005B25645D63726366696E616C20202020B9
:1045000020203A203078253034780A00436F7272C8
:10451000656374206F7065726174696F6E20766177
:104520006C6964617465642E2053656520726561F1
:10453000646D652E74787420666F722072756E20BB
:10454000616E64207265706F7274696E6720727537
:104550006C65732E000000004572726F72732064E8
:10456000657465637465640043616E6E6F74207674
:10457000616C6964617465206F7065726174696FE4
:104580006E20666F7220746865736520736565645C
:104590002076616C7565732C20706C656173652085
:1045A000636F6D70617265207769746820726573DE
:1045B000756C7473206F6E2061206B6E6F776E2048
:1045C000706C6174666F726D2E00000053746174BC
:1045D0006963000048656170000000005374616306
:1045E0006B000000944600089C460008A4460008A2
:1045F000AC46000864460008704600087C46000887
:104600008846000854302E33652D314600000000E6
:104610002D542E542B2B5471000000003154332E96
:104620003465347A0000000033342E30652D545E3A
:1046300000000000352E353030652B3300000000BF
:104640002D2E313233652D32000000002D383765B4
:104650002B383332000000002B302E36652D3132DE
:104660000000000033352E353434303000000000B7
:104670002E31323334353030000000002D313130EE
:104680002E373030000000002B302E3634343030DE
:104690000000000035303132000000003132333488
:1046A000000000002D383734000000002B3132327A
:1046B0000000000034460008404600084C46000850
:1046C0005846000804460008104600081C4600082A
:1046D00028460008002020202020202020202828F4
:1046E00028282820202020202020202020202020B2
:1046F00020202020208810101010101010101010F2
:104700001010101010040404040404040404041021
:1047100010101010101041414141414101010101AF
:104720000101010101010101010101010101010179
:104730001010101010104242424242420202020285
:104740000202020202020202020202020202020249
:1047500010101010200000000000000000000000F9
:104760000000000000000000000000000000000049
:104770000000000000000000000000000000000039
:104780000000000000000000000000000000000029
:104790000000000000000000000000000000000019
:1047A0000000000000000000000000000000000009
:1047B00000000000000000000000000000000000F9
:1047C00000000000000000000000000000000000E9
:1047D00000000000000000000000000000000000D9
:1047E00000000000000000000000000000000000C9
:1047F00000000000000000000000000000000000B9
:1048000000000000000000000000000000000000A8
:104810000000000000000000000000000000000098
:104820000000000000000000000000000000000088
:1048300000000000000000004300000018000020FD
:10484000232D302B2000686C4C0065666745464779
:1048500000303132333435363738394142434445FC
:10486000460030313233343536373839616263646B
:034870006566007A
:104874000024F400E8030000E02E000066000000BD
:1048840001000000D446000800000000D8470008DA
:10489400F847000818480008000000000000000065
:1048A400000000000000000038480008000000007C
:1048B40000000000000000000000000000000000F4
:1048C40000000000000000000000000000000000E4
:1048D40000000000000000000000000000000000D4
:0C48E40000000000000000001800002090
:04000005080001C925
:00000001FF
